:020000040800F2
:10000000202E00209D010008F32500081D23000874
:10001000F1250008A91600087D2C0008000000004A
:10002000000000000000000000000000412A00085D
:100030007D1C00080000000079260008712A0008D5
:10004000B7010008B7010008B7010008B7010008B0
:10005000B7010008B7010008392100088521000810
:10006000B7010008B7010008B7010008B31900087C
:10007000B7010008B7010008B7010008B701000880
:10008000B7010008B7010008B7010008B701000870
:10009000B7010008B7010008B7010008B701000860
:1000A000B7010008B7010008B7010008B701000850
:1000B000B7010008B7010008B7010008B701000840
:1000C000B7010008B7010008B7010008B701000830
:1000D0009D270008B7010008B7010008B701000814
:1000E000B7010008B7010008B7010008B701000810
:1000F000B7010008B7010008B7010008B7190008E8
:10010000B7010008B7010008B7010008F927000887
:10011000B7010008B7010008B7010008B7010008DF
:10012000B7010008B7010008B7010008B7010008CF
:10013000B7010008B7010008B7010008B7010008BF
:10014000B7010008B7010008B7010008B7010008AF
:10015000B7010008B7010008B7010008B70100089F
:10016000B7010008B7010008B7010008B70100088F
:10017000B7010008B7010008B7010008B70100087F
:10018000B7010008B7010008DFF80CD001F0C8F98A
:100190000048004751300008202E002006488047C4
:1001A00006480047FEE7FEE7FEE7FEE7FEE7FEE75C
:1001B000FEE7FEE7FEE7FEE7512B00088901000895
:1001C0002DE9F05F0446FF48FD4901600268FE48E2
:1001D000FE490026824232D10860E661A66166616E
:1001E0002661A662666226626068DFF8E4A3DFF833
:1001F000E4B304F11005814610F0FF4F21D02088B0
:1002000001F0C7F852465B4601F054F807468846AD
:10021000484601F0E4F83A46434600F032FF07460C
:1002200088460821484600F020FF01F0D8F83A46F9
:10023000434601F03FF801F0B9F8A88302E00E60F0
:10024000FEE7AE83A76817F0FF4F1FD0B4F8008019
:10025000404601F09EF806468946384601F0BFF850
:1002600052465B4600F0B4FF4B46324600F009FFB1
:1002700006460F464FEA082001F08BF832463B460F
:1002800001F018F801F092F8E88300E0EE8320888E
:100290004FF47A71B0FBF1F02884BDE8F09F2DE9AE
:1002A000FF4FCA49C84A97B00968914200D0FEE79B
:1002B0001A99103100250A6903924A6908928A69DD
:1002C0000792D1E901620C680592CA6806921A9AEF
:1002D0008B8B92890993CB8B0E9316E10778BE4BDB
:1002E000A3F5807813F807C0B444CDF844C018F8DB
:1002F000076010F802A004EB4606A3F5007413F89B
:100300000AC0E75D0CEB0609CDF82C9010F81290AE
:1003100018F80A6007EB460613F809C014F80A70CB
:100320000CEB060E18F8096002EB420C07EB4606D0
:1003300014F80970CDF84CC010F80C9013F809C0EF
:100340000CEB060B18F8096007EB460614F8097069
:1003500010F8229013F809C0B444CDF848C018F83A
:10036000096002EB820C07EB460614F8097010F8DE
:100370000C9013F809C00CEB060A18F80960DDF8B8
:100380004CC007EB460614F8097010F81C9013F8DF
:1003900009C0B444CDF850C018F8096014F809C079
:1003A00007EB4606C2EBC207DDF82C90C75DDB5DAC
:1003B0003344139318F80730E45D0CEB4306C9EBA4
:1003C000C903DDF844C003EB4307CCEBCC0307EBD8
:1003D0008303CEEB0E1C63440BEB8B0C03EB4C0343
:1003E000DDF848C00CEB4C0803EB48030AEB4A0C61
:1003F0006344DDF850C09C44069B6344DDF844C070
:1004000001930CEBCC039B0003EB4703CEEBCE0731
:1004100007EB0E1703EB47030BEB4B0703EB07133D
:10042000CAEBCA0703EB081307EB0A17DDF850C045
:1004300003EB4703CCEBCC0707EB470803EB48077C
:10044000139BDDF848C003EBC30307EB8307059B51
:100450000CEB8C0C3B4406930BEB4B070EEB4E0363
:100460007F004B4407EB4C073B44CAEB0A173B4465
:1004700003EB0807139BC3EBC30307EB830305934D
:10048000019B0E9FA3F500338FB1039F07EB030C75
:10049000089FACEB0707DDF838C007FB0CF74FEA05
:1004A000E77C07EB1C673F12039708933B46099FC5
:1004B00077B1DDF81CC0C7F5807707FB0CF7DDF8D6
:1004C00024C00CFB0373DF1703EB17631B120793A6
:1004D000199F7B43002B01DD083300E0083BDF1749
:1004E00003EB17733D4F1B11BB4203DB7F42BB4243
:1004F00000DC1F463B461A9FDDF860C000EBC200DF
:10050000FF896F436D1C2CF817300B8CAB423FF703
:10051000E5AEC1E90046059888600698C860039872
:100520000861089848610798886198B21BB0BDE8D7
:10053000F08F2DE9FF4F2549234A97B00968914272
:1005400000D0FEE71A99103100250A6903924A6922
:1005500008928A690792D1E901620C680592CA681B
:1005600006921A9A8B8B92890993CB8B0E9328E172
:100570000778194BA3F5807813F807C0B444CDF879
:1005800044C018F8076010F802A004EB4606A3F573
:10059000007413F80AC0E75D0CEB0609CDF82C9047
:1005A00010F8129018F80A6007EB460613F809C015
:1005B00014F80A700CEB060E18F8096010E0000041
:1005C000C2A507F400300240CDB5E8B58001002097
:1005D0001F85EB51B81E1940840300204480FFFFA3
:1005E00007EB460614F8097002EB420CCDF84CC03C
:1005F00010F80C9013F809C00CEB060B18F8096002
:1006000007EB460614F8097010F8229013F809C099
:10061000B444CDF848C018F8096002EB820C07EB2F
:10062000460614F8097010F80C9013F809C00CEB8A
:10063000060A18F80960DDF84CC007EB460614F806
:10064000097010F81C9013F809C0B444CDF850C0DC
:1006500018F8096014F809C007EB4606C2EBC20798
:10066000DDF82C90C75DDB5D3344139318F8073039
:10067000E45D0CEB4306C9EBC903DDF844C003EBB2
:100680004307CCEBCC0307EB8303CEEB0E1C634498
:100690000BEB8B0C03EB4C03DDF848C00CEB4C0868
:1006A00003EB48030AEB4A0C6344DDF850C09C445A
:1006B000069B6344DDF844C001930CEBCC039B0024
:1006C00003EB4703CEEBCE0707EB0E1703EB470315
:1006D0000BEB4B0703EB0713CAEBCA0703EB08133B
:1006E00007EB0A17DDF850C003EB4703CCEBCC0750
:1006F00007EB470803EB4807139BDDF848C003EB03
:10070000C30307EB8307059B0CEB8C0C3B44069360
:100710000BEB4B070EEB4E037F004B4407EB4C07F4
:100720003B44CAEB0A173B4403EB0807139BC3EB9C
:10073000C30307EB83030593019B0E9FA3F50033CF
:100740008FB1039F07EB030C089FACEB0707DDF8A5
:1007500038C007FB0CF74FEAE77C07EB1C673F123A
:10076000039708933B46099F77B1DDF81CC0C7F596
:10077000807707FB0CF7DDF824C00CFB0373DF1751
:1007800003EB17631B120793199F7B43002B01DDBB
:10079000083300E0083BDF1703EB1773FE4F1B1114
:1007A000BB4203DB7F42BB4200DC1F463B461A9F35
:1007B000DDF860C000EBC200FF896F436D1C2CF8B0
:1007C00017300B8CAB423FF7D3AEC1E9004605981A
:1007D00088600698C860039808610898486107987F
:1007E000886198B2A2E62DE9FF4FEC49EC4A97B038
:1007F0000968914200D0FEE71A99103100250A6974
:1008000003924A6908928A690792D1E901620C68E9
:100810000592CA6806921A9A8B8B92890993CB8BA0
:100820000E9317E1DD4B07781B1D03F5807813F855
:1008300007C0B444CDF844C018F8076010F802A00F
:1008400004EB460603F5007413F80AC0E75D0CEBF1
:100850000609CDF82C9010F8129018F80A6007EBF2
:10086000460613F809C014F80A700CEB060E18F8C7
:10087000096002EB420C07EB460614F80970CDF84C
:100880004CC010F80C9013F809C00CEB060B18F8CC
:10089000096007EB460614F8097010F8229013F867
:1008A00009C0B444CDF848C018F8096002EB820CC6
:1008B00007EB460614F8097010F80C9013F809C0FD
:1008C0000CEB060A18F80960DDF84CC007EB460689
:1008D00014F8097010F81C9013F809C0B444CDF84E
:1008E00050C018F8096014F809C007EB4606C2EBBF
:1008F000C207DDF82C90C75DDB5D3344139318F815
:100900000730E45D0CEB4306C9EBC903DDF844C0D6
:1009100003EB4307CCEBCC0307EB8303CEEB0E1CBE
:1009200063440BEB8B0C03EB4C03DDF848C00CEB82
:100930004C0803EB48030AEB4A0C6344DDF850C053
:100940009C44069B6344DDF844C001930CEBCC034C
:100950009B0003EB4703CEEBCE0707EB0E1703EB31
:1009600047030BEB4B0703EB0713CAEBCA0703EB79
:10097000081307EB0A17DDF850C003EB4703CCEB75
:10098000CC0707EB470803EB4807139BDDF848C08B
:1009900003EBC30307EB8307059B0CEB8C0C3B4479
:1009A00006930BEB4B070EEB4E037F004B4407EB1C
:1009B0004C073B44CAEB0A173B4403EB0807139B65
:1009C000C3EBC30307EB83030593019B0E9FA3F5C2
:1009D00000338FB1039F07EB030C089FACEB0707B5
:1009E000DDF838C007FB0CF74FEAE77C07EB1C6724
:1009F0003F12039708933B46099F77B1DDF81CC06F
:100A0000C7F5807707FB0CF7DDF824C00CFB0373F8
:100A1000DF1703EB17631B120793199F7B43002B10
:100A200001DD083300E0083BDF1703EB17735A4F73
:100A30001B11BB4203DB7F42BB4200DC1F463B462F
:100A40001A9FDDF860C000EBC200FF896F436D1C88
:100A50002CF817300B8CAB423FF7E4AEC1E90046EF
:100A6000059888600698C8600398086108984861EE
:100A70000798886198B259E52DE9FF4F4749484AE0
:100A800098B00968914200D0FEE71B99103100250B
:100A90000A6902924A6906928A690492D1E901625E
:100AA0000B680592CA6808921B9A94898A8B0992EE
:100AB000CA8B10926BE1394A0778121D02F58078D3
:100AC00012F807C0B444CDF858C018F8076010F801
:100AD00004A003EB460602F5007312F80AC0DF5DBE
:100AE0000CEB0609CDF8289010F8149018F80A605D
:100AF00007EB460612F809C013F80A70B444CDF8A3
:100B00002CC018F8096004EB440A07EB460613F8FA
:100B1000097010F80A9012F809C0B444CDF838C032
:100B200018F8096007EB460613F8097010F82490CE
:100B300012F809C0B444CDF83CC018F8096004EBC1
:100B4000840C07EB460613F80970CDF854C010F872
:100B50000C9012F809C0B444CDF844C018F80960EC
:100B600007EB460613F8097010F81A9012F809C03E
:100B70000CEB060E18F80960C4EBC40C07EB460634
:100B800013F8097010F80C9012F809C00CEB060A63
:100B900018F8096006E000004480FFFF8001002093
:100BA000CDB5E8B507EB460613F8097010F8349098
:100BB00012F809C00CEB060B18F8096013F809C00D
:100BC00007EB460604EBC407DDF82890C75DD25D4D
:100BD000DB5D324418F807600CEB4606DDF858C0C0
:100BE000CCEB0C1707EB470709EBC90C07EB8C079D
:100BF000DDF82CC0CCEBCC0C07EB8C07DDF838C053
:100C0000CCEBCC0C0CEB4C0C6744DDF83CC0CCEBD3
:100C10000C1C6744DDF844C00CEB8C0C07EB4C0754
:100C20000EEB4E0C07EB4C070AEB4A0C674407EB44
:100C30000B0C089F6744DDF858C001970CEBCC07FC
:100C4000C7EB8C17C9EB891C6744DDF82CC00CEB93
:100C50008C0808EB8C1C6744DDF838C00CEBCC0822
:100C600008EB8C1C6744DDF83CC00EEBCE08CCEBE7
:100C70000C1C0CEB8C0C6744DDF844C0CCEB0C1C5A
:100C80000CEB8C0C674408EB8E1C67440AEB8A085B
:100C900008EB8A1C6744CBEB8B1C674402EBC20C4D
:100CA000CCEB821CBC44059FC2EB02126744DDF80A
:100CB0002CC008970CEB4C07DDF838C04F440CEB08
:100CC0004C0C4FEA4C08DDF83CC002EB42020CEB46
:100CD0008C0C08EB4C0C6744DDF844C0CCEB0C1CCE
:100CE0006744CEEBCE0C0CEB4C0C6744CAEBCA0C41
:100CF00007EB8C070BEBCB0C07EB8C073A44059208
:100D0000019F109AA7F57A378AB1029A02EB070C75
:100D1000069AACEB0202DDF840C0069702FB0CF22B
:100D20004FEAE27C02EB1C62121202921746099A09
:100D30007AB1DDF810C0C2F5807202FB0CF2DDF86A
:100D400024C00CFB0722D71702EB176212121746BA
:100D500004921A9A5743002F01DD103700E0103F2C
:100D6000FA1707EBD262144F5211BA4203DB7F42EB
:100D7000BA4200DC17463A461B9FDDF864C0FF8983
:100D80006F436D1C2CF81720159A00EB42000A8C5B
:100D9000AA423FF790AEC1E90036059888600898EE
:100DA000C8600298086106984861049888611CB080
:100DB00090B2BDE8F08F00004480FFFF2DE9FF4FA7
:100DC00083B06FF00103039803994068896801912B
:100DD00003990988009103EB4101069B01449B089C
:100DE00065D0DDF800C04FEA9C0CCDF808C000BF0C
:100DF000DDF810C04FF000063746DCF800C041F8BF
:100E000004CBDDF810C0B046B1465CF8044F41F8A1
:100E1000044B0CF1040CCDF810C0019CD0F802E09A
:100E2000D0F800B0DDF8085000F1040C54F804AB21
:100E30002BFB0A6B2EFB0A775CF8026B5CF802EB6B
:100E400026FB0A882EFB0A9A54F8049B26FB09B657
:100E50002EFB09775CF802BB5CF802EB2BFB0988E0
:100E60002EFB09A96D1EE1D1009D15F0030F0CD0DA
:100E70005CF8025B2468DCF800C02BFB04662EFBE8
:100E8000047725FB04882CFB04994FEAE63CFC130D
:100E9000CCEA044C42F804CB4FEAE83C4FEAE93490
:100EA000CCEA044C083042F804CB5B1EA0D1069B70
:100EB00013F003081CBF009B4FEA53091BD0049B8F
:100EC0004FF0000584461B8821F8023B049B019CDF
:100ED00003F1020304934B465CF8046B54F8047B63
:100EE00026FB07555B1EF7D1EB13801C22F8023B53
:100EF000B8F10108E3D10399009AA2F1010C496805
:100F00004FEA9C02B2F1004F0BD300BF50F8043BF4
:100F100041F8043B50F8043B41F8043B521EF5D124
:100F20000FE00123521C012A0BDD00BF50F8044BD7
:100F300041F8044B50F8044B5B1C41F8044B9A42B7
:100F4000F4DC0CF00302B2F1004F08D330F8023B9E
:100F500021F8023B521EF9D107B0BDE8F08F002AFC
:100F6000DCBF07B0BDE8F08F801E891E12F0010FB4
:100F700003D030F8023F21F8023F520804BF07B007
:100F8000BDE8F08F43884B8030F8043F21F8043FE0
:100F9000521EF7D107B0BDE8F08F70B50446049833
:100FA0001D46042902D311F0010F02D04FF0FF308B
:100FB00070BD218008444000811E2846A26000F0D8
:100FC00049F80020656070BD10B4930812D000BFCE
:100FD00030F902CB30F8024BCCEA044C41F804CB98
:100FE00030F902CB30F8024BCCEA044C41F804CB88
:100FF0005B1EEDD102F00302B2F1004F08D300BF37
:1010000030F8023B21F8023B521EF9D110BC704768
:10101000002ADCBF10BC7047801E891E12F0010F31
:1010200003D030F8023F21F8023F520804BF10BC41
:10103000704743884B8030F8043F21F8043F521E2C
:10104000F7D110BC7047D2B201E000F8012B491E65
:10105000FBD270470022F6E710B513460A46044655
:101060001946FFF7F0FF204610BD420005D0C0F33F
:10107000C7525242914201DC0020704700EBC15040
:1010800070472DE9FE4F804681EA0300C00F0C46F1
:10109000009021F0004123F00045B8EB0200A94187
:1010A00005D24046214690461C460B46024623F098
:1010B0000040104347D0270DC7F30A00C3F30A517D
:1010C0000290401A019040286BDAC3F3130040F4F9
:1010D000801B0098924620B10023D2EB030A63EBF9
:1010E0000B0B01985946C0F14002504600F08AF9B6
:1010F00006460D4650465946019A00F0A2F910EBFB
:1011000008006141002487EA115284EAE7731A4318
:1011100040D0009A62B3019A012A4FEA075215DCC7
:10112000001B61EB02014FF0004202EA0752CDE9D9
:101130000042001C41F5801132462B4600F0A2F916
:1011400003B0BDE8F08F40462146F9E7001B61EB94
:101150000201001C41F5801300185B412018A2F524
:10116000001747EB030140EAD570B6196D4111E055
:101170006D084FEA360645EAC0754FEA0752001B74
:1011800061EB0201001C41F5801149084FEA300073
:101190000019514132462B4603B0BDE8F04F00F034
:1011A00062B90098012240000023D0EB020263EBF9
:1011B000E073009821464FEAE074B8EB000061EB61
:1011C0000401E9E783F000435BE781F0004158E761
:1011D0002DE9FE4F81EA030404F0004421F00041B0
:1011E00000944FF0000B23F0004350EA01045ED05E
:1011F00052EA03045BD0C3F30A54C1F30A552C44EA
:10120000A4F2F3340194A0FB0254C1F3130141F49E
:101210008011C3F3130343F4801301FB024400FB6A
:10122000034E840A970A44EA815447EA8357A4FB91
:10123000076802958D0A05FB07854FEA932C04FB8E
:101240000C542705029D4FEA065847EA1637B5EBBE
:1012500008056EEB070C870E920E47EA811742EAEB
:101260008312A7FB0201B6EB0B0164EB00042B0D0C
:1012700043EA0C335E1844EB1C50DA465146E7FB58
:101280000201C5F313044FEA0B3343EA14534FEA48
:101290000432019C43EA0603A4F10C040294009C6E
:1012A000CDE900B400F0EEF803B0BDE8F08F002007
:1012B0000146F9E72DE9F04D81EA030404F0004B03
:1012C00021F0004514464FF0000A23F0004150EA97
:1012D000050220D054EA01021DD0C5F30A57024688
:1012E000C5F31303C1F31300C1F30A5640F480158C
:1012F00043F48013A7EB0608101BD64608F2FD380E
:1013000073EB050002D308F1010801E092185B417C
:10131000B8F1000F03DA00200146BDE8F08D00208F
:101320004FF48011064684460EE0171B73EB050749
:1013300005D3121B63EB050306434CEA010C490875
:101340004FEA300092185B4150EA0107EDD152EAB2
:10135000030012D082EA040083EA0501084305D0A5
:10136000101BAB4106D20122002306E000224FF001
:10137000004302E06FF0010253101AEB06004CEB41
:10138000085110EB0A0041EB0B01BDE8F04D00F0F5
:101390006AB80EB540F2334102910021CDE9001147
:1013A0000A460B4600F06EF803B000BDC1F30A52C6
:1013B00010B5C1F3130140F2FF3341F480119A429A
:1013C00001DA002010BD40F233439A42A2F23342C8
:1013D00003DC524200F025F810BD904010BD00F033
:1013E000004230F000400AD0C10D01F56071C0F339
:1013F000160042EA0151C20840071143704700201D
:1014000001467047202A04DB203A00FA02F100204E
:1014100070479140C2F1200320FA03F31943904032
:101420007047202A04DB203A21FA02F0002170479D
:1014300021FA02F3D040C2F120029140084319463C
:101440007047202A06DBCB17203A41FA02F043EA24
:10145000E07306E041FA02F3D040C2F1200291406D
:1014600008431946704710B5141E73F1000408DADA
:10147000401C41F1000192185B411A4301D120F058
:10148000010010BD2DE9F04D92469B4611B1B1FA15
:1014900081F202E0B0FA80F220329046FFF7B2FF0C
:1014A00004460F4640EA0A0041EA0B0153465A46F9
:1014B000084313D0114653EA010019D0C8F1400285
:1014C0005046FFF7AEFF05460E4650465946424687
:1014D000FFF798FF084305D0012004E02046394675
:1014E000BDE8F08D0020054346EAE0762C43374303
:1014F0000A986305E40AA0EB08000022FD0A44EA0A
:1015000047540A3002D500200146E9E701051019C9
:101510006941DDE9084500196941BDE8F04DA2E7E0
:10152000064C074D06E0E06840F0010394E8070030
:1015300098471034AC42F6D3FEF72AFEE03000089C
:101540000031000870B58C1810F8015B15F0070326
:1015500001D110F8013B2A1106D110F8012B03E04C
:1015600010F8016B01F8016B5B1EF9D12B0705D454
:101570000023521E0DD401F8013BFAE710F8013B9D
:10158000CB1A921C03E013F8015B01F8015B521EB9
:10159000F9D5A142D8D3002070BD000010B5264C6B
:1015A000A16AA06900F0F4FA002808BF10BDA06885
:1015B000002833D0A06900F0E3FA0028FAD1A16A2C
:1015C000A06900F0FBF91D48E16B8160A168B1F5ED
:1015D000803F28BF4FF6FF7101611849A06900F0F4
:1015E00011FB0121A06900F0FFF9A068B0F5803F70
:1015F00034BF01464FF6FF71E26B02EB4101E1633C
:1016000034BF01464FF6FF71A0EB0100A060A06956
:10161000BDE810404FF0010100F0E6B90021A069DB
:1016200000F0E2F9A16AA06900F0C8F9E06BBDE83A
:101630001040002100F068BD30010020E4290020A6
:1016400010B5154CD4F810C0144A2346BCF1010F54
:101650009B69906014D011611146184600F0D2FACF
:101660000121A06900F0C0F90D48008810F4806FD6
:1016700018BF10BD0121BDE810400A4800F035BF79
:10168000480810610549184600F0BCFA0121A0691C
:1016900000F0AAF9E8E7000030010020E42900206A
:1016A0001C3C0040003C0040FEE700002DE9F35FD9
:1016B0009C4C4FF496188146C4F80C809A4D4FF418
:1016C0000031284600F08DFE58B1E068411EE1600F
:1016D00000D2FEE74FF40031284600F082FE0028D9
:1016E000F3D10121284600F06AFE4FF48056E660EF
:1016F0008E4F2846394600F01BFE50B9E068411E67
:10170000E16000D2FEE73946284600F011FE0028CD
:10171000F4D000229421284600F0DDFEE660DFF8D8
:1017200010A22846514600F003FE50B9E068411E61
:10173000E16000D2FEE75146284600F0F9FD00289E
:10174000F4D04946284600F0CEFEE660DFF8E4B16A
:101750002846594600F0ECFD50B9E068411EE160B2
:1017600000D2FEE75946284600F0E2FD0028F4D0FA
:101770002846019900F0B7FEC4F80C80DFF8B8B134
:101780002846594600F02DFE50B9E068411EE16040
:1017900000D2FEE75946284600F023FE0028F4D088
:1017A0000121284600F014FEC4F80C804FF40031EB
:1017B000284600F016FE58B1E068411EE16000D2F4
:1017C000FEE74FF40031284600F00BFE0028F3D16D
:1017D0000121284600F0F3FDE6603946284600F076
:1017E000A7FD50B9E068411EE16000D2FEE739462E
:1017F000284600F09DFD0028F4D0002294212846C0
:1018000000F069FEE6605146284600F091FD50B9AF
:10181000E068411EE16000D2FEE75146284600F034
:1018200087FD0028F4D04946284600F05CFEE660BB
:101830005946284600F0D5FD50B9E168481EE060E1
:1018400000D2FEE75946284600F0CBFD0028F4D030
:101850000121284600F0B3FDE6603946284600F035
:1018600067FD50B9E268501EE06000D2FEE73946DD
:10187000284600F05DFD0028F4D00122942128467E
:1018800000F029FEE6602D4F2846394600F0A9FDFC
:1018900050B9E268501EE06000D2FEE739462846A3
:1018A00000F09FFD0028F4D00021284600F037FD0D
:1018B000234800880121284600F08AFDE660214F78
:1018C0002846394600F08DFD50B9E268501EE060B0
:1018D00000D2FEE73946284600F083FD0028F4D008
:1018E000284600F0F5FD0746E660288810F4007FE2
:1018F00008D0E168481EE06000D2FEE7288810F4B6
:10190000007FF6D10121284600F009FD0E49284646
:1019100000F01BFD0198874214BF0120002002B097
:10192000BDE8F09F3001002000540040010003009A
:101930008200070080000700040000100200001071
:10194000185400404000001000040010054A012314
:1019500003FA00F00029116814BF084321EA0000CF
:1019600010607047007400400B4B10B41A6840F6CA
:10197000FE7C0CFA00FC22EA0C02D1E900C44CEA1D
:10198000040CD1E9024121434CEA010101FA00F0C3
:101990001043186010BC704700740040A0F6F83087
:1019A00081B000F1804000F500400090016001B07E
:1019B0007047FFF7F3BDFFF7F1BD0000064A904204
:1019C00034BF0648064811F0005F064A01EA0201EA
:1019D00014BFC16081607047106402400060024023
:1019E000006402407D0F7D0F0029016814BF41F0A3
:1019F000010121F001010160704700002DE9F003B1
:101A0000016821F0010101600021016041608160F5
:101A1000C160016121214161434A3D244349904213
:101A200002BF8C60BDE8F0037047414A4FF4746513
:101A3000904202BF8D60BDE8F00370473D4A4FF40D
:101A40007418904202BFC1F80880BDE8F0037047E7
:101A5000394A4FF07466904202BF8E60BDE8F003D1
:101A60007047364B364A984202BFCA60BDE8F00361
:101A70007047DFF8D0C0344B604502BFCB60BDE893
:101A8000F0037047314FDFF8C8C0B84202BFC1F859
:101A90000CC0BDE8F0037047DFF8B8904FF03D5739
:101AA000484502BFCF60BDE8F0037047DFF8A8905B
:101AB0002A49484502BF0C60BDE8F0037047284C36
:101AC000A04202BF0D60BDE8F0037047254CA04264
:101AD00002BFC1F80080BDE8F0037047224CA0426D
:101AE00002BF0E60BDE8F0037047204C2049A042C1
:101AF00002BF0A60BDE8F00370471E4A904202BF71
:101B00000B60BDE8F00370471B4A904202BFC1F86A
:101B100000C0BDE8F0037047184A904208BF0F604C
:101B2000BDE8F00370470000106002400060024012
:101B300028600240406002405860024070600240ED
:101B40003D00002088600240400F0020A06002405D
:101B500000003D20B860024010640240086402406A
:101B600028640240406402405864024070640240AD
:101B70000C64024088640240A0640240B8640240E1
:101B800001460020096811F0010F18BF01207047BD
:101B90000246084B00209A4234BF074A074A11F018
:101BA000005F14BF52681268054B1A400A4218BF02
:101BB000012070471064024000600240006402404F
:101BC0007D0F7D0F11F0800F01F01E0306D072B162
:101BD000D0F814C04CF0800CC0F814C0802908BFA5
:101BE0007047002A1CBF0168194307D008E042690A
:101BF00022F080024261802908BF70470168994342
:101C00000160704710B402681B4BD1F80CC01A4039
:101C10000B6843EA0C03D1E905C44CEA040C43EA1F
:101C20000C03D1F81CC043EA0C03D1F820C043EAEE
:101C30000C03D1F824C043EA0C03D1F828C043EACE
:101C40000C03D1F834C043EA0C03D1F838C043EA9E
:101C50000C031A4302604269D1E90B3C22F00702EF
:101C600043EA0C031A4342610A6942604A6882608F
:101C70008968C16010BC70473F801CF0704700202D
:101C8000704700002DE9F04F89B0642988BF6426B1
:101C900007D8C1EB01214AF2D73000FB0100C0F3A5
:101CA000875617464FF0000A0121082000F0E6FC95
:101CB0004FF001088DF8048002258DF805500024AE
:101CC0004FF010098DF80640CDF800908DF80740D0
:101CD0006946DD4800F0C4FA0121072000F0CEFC7F
:101CE0008DF804504FF410708DF80550DFF85CB398
:101CF00000908DF806808DF807406946584600F040
:101D0000AFFA04220621584600F0F2FA0422092113
:101D1000584600F0EDFA8DF804504FF4A0508DF8BD
:101D20000550DFF82CB300908DF806408DF8074081
:101D30006946584600F094FA06220421C54800F08E
:101D4000D7FA06220A21584600F0D2FADFF808B383
:101D5000DBF8100002280BD06946BE48CDF8009091
:101D600000F07EFA06220C21B94800F0C1FA0EE01C
:101D70000121084600F082FC03208DF80400CDF814
:101D800000908DF807406946B24800F069FA8DF876
:101D900004508DF805508020AD4D00908DF8064020
:101DA0008DF807406946284600F05AFA06220721B6
:101DB000284600F09DFAA44D00221021284600F08C
:101DC000A8FA44F6FF700090401E0090FCD101225A
:101DD0001021284600F09DFA0121480500F05AFC28
:101DE0009E4800F0BEFAADF804404BF6FF70ADF827
:101DF00006003320ADF808004FF480652801ADF8E7
:101E00000C0097480090ADF80A500121934800F06B
:101E10009FFA6946914800F0F9FA01210220FFF784
:101E200045FC8244AF210420FFF740FC8244AF20F0
:101E30008BF8000081210520FFF738FC8244042143
:101E40000620FFF733FC8244E62E09D9E73EF1B2C3
:101E50002020FFF72BFCF1B22120FFF727FC08E040
:101E60001936F1B22020FFF721FCF1B22120FFF753
:101E70001DFCDBF8100002281AD101210820FFF711
:101E800015FC00EB0A0601210920FFF70FFC0644B0
:101E9000C0210E20FFF70AFC064400211420FFF7A2
:101EA00005FC064400211520FFF700FC00EB060AA4
:101EB0009E210220FFF7FAFB00EB0A0600210A2010
:101EC000FFF7F4FB0644DBF8100000212720FFF7A2
:101ED000EDFB06440F211F20FFF7E8FB064401211C
:101EE000C80300F0D7FBDFF87CA1504600F0ACFC43
:101EF0004FF40070ADF80240ADF80440ADF80000BA
:101F0000ADF806000297ADF80C406946504600F067
:101F1000F5FADBF8100002280ED10121000700F0CD
:101F2000B9FB0494059404A900200794FFF71CFD55
:101F300001210020FFF70AFD002E1EBF012009B07D
:101F4000BDE8F08FDBF81000012840D10121DBF85B
:101F5000140000F093FB0021DBF81800FFF744FDAC
:101F6000DBF81800FFF74AFD3F48DBF8201001605E
:101F7000DBF81C10C0E901144021C1604FF6FE716E
:101F8000C0E904144FF40061C0E906518900C0E9BA
:101F900008140901C0E90A14046344630146846318
:101FA000DBF81800FFF72EFE01221021DBF81800E5
:101FB000FFF708FE9BF824008DF800008DF8014023
:101FC0008DF802408DF80380684600F013FBDBF8C3
:101FD0001000012832D00121244800F04FFB0121DC
:101FE000480700F057FB03208DF81C00CDF818902F
:101FF0008DF81F4006A9174800F032F902940394A7
:1020000002A900200594FFF7AFFC01210020FFF793
:102010009DFC01227121504600F062FC33208DF8B6
:1020200000008DF801408DF802408DF8038068466D
:1020300000F0E0FA09B00020BDE8F08F0122022193
:10204000504600F0F9FBF5E7000C024000040240A6
:10205000000802400000024030010020005400400F
:10206000A0860100003C0040E4290020010020007F
:102070001B490861D1F810C000224FF40013BCF1D5
:10208000010F15D0022818BF70471648C1E9053066
:102090001548C1E907020B204862144888621448B9
:1020A000C86214480863144848631448886370473A
:1020B0001348C1E905301348C1E907022F204862DF
:1020C0004FF0205088624FF01050C8624FF001501E
:1020D00008634FF0085048634FF00450E6E70000F3
:1020E00030010020106002400C74004020000010FD
:1020F0001000001001008010080000100400801083
:10210000B86002400C3C004010B5084C60784FF4B9
:10211000006128B10648FFF793FA0020607010BDF7
:102120000448FFF78DFA0120F8E7000010000020B6
:10213000940C00209404002010B5012000F038F821
:10214000B0B10E4882684168C831914210D20C4942
:102150000A68521C0A60017812F0010F21F0C001D8
:1021600014BF41F0800141F040010170816841607D
:10217000BDE81040012000F015B800000400002068
:102180000000002010B5022000F012F8002808BF5F
:1021900010BD012000F0F4FBBDE81040022000F06B
:1021A00001B800000149086070470000143C01407C
:1021B000054A00211268054B02401B6803421CBF00
:1021C000002A012108467047003C0140143C0140B0
:1021D000837921490268002B34D00B6823EA02027C
:1021E0000A60091D0A6803689A430A60017901F1CF
:1021F000804101F59E310A6803681A430A60174B53
:1022000019680268914319601A1D1168D0F800C05E
:1022100021EA0C0111604179102908D001F18041B7
:1022200001F59E310A68006810430860704719681C
:10223000D0F800C041EA0C01196011680068084339
:1022400010607047007900F1804000F59E30016811
:102250009143016070470000003C0140083C014090
:102260002DE9F001002201255FF00306D1F800C03E
:1022700005FA02F30CEA030C9C4533D107684FEAD8
:10228000420C06FA0CF4A74307600F79D0F80080DF
:1022900007FA0CF747EA080707600F79012F18BF04
:1022A000022F14D18768A74387604F79D0F8088040
:1022B00007FA0CF747EA08078760476827EA03032D
:1022C000436043688F799740BFB23B434360C36824
:1022D000A343C360CB7903FA0CF3D0F80CC043EAF4
:1022E0000C03C360521C102AC0D3BDE8F001704734
:1022F0004B07DB0E9A40C90800EB8100016A4FF0E2
:102300000F0C0CFA03F399430162016A1143016255
:102310007047002A14BF018341837047FEE70029FC
:10232000018814BF41F4806121F48061018070470D
:10233000838A0022008B43EA004020F07F4031EA8C
:10234000000008BF012210467047C94381827047D0
:102350000029018814BF41F0010121F00101018031
:10236000704710B5A0F18041B1F5A84111D0B1F589
:10237000806119D0B1F5806118BF10BD0121C80579
:1023800000F094F9BDE8104000214FF4000000F087
:102390008DB90121480500F089F9BDE81040002100
:1023A0004FF4001000F082B90121880500F07EF999
:1023B000BDE8104000214FF4800000F077B90029FB
:1023C000018814BF41F4807121F48071018070474D
:1023D0000029018814BF41F4007121F400710180CB
:1023E000704782B00246002000920A0F21F07F4120
:1023F000019208BF090C009A14BF143218320092DF
:1024000012680A4218BF012002B0704770B5044636
:10241000808884B00D4620F03F06684600F06AF9D7
:1024200029490298B0FBF1F189B246EA0102A28083
:10243000228822F001022280244B2A689A421DD869
:102440005200B0FBF2F080B2042838BF0420491CCF
:102450002184A083208840F0010020802088A98862
:102460006A8920F00A0020F480601143084320802C
:10247000A88929890843208104B070BDEB88A3F5A1
:102480003F4CBCF1FF0C19D002EBC20303EB02126C
:10249000B0FBF2F080B240F480400205120D08BF9C
:1024A00040F0010040F400404FF4967251434FF465
:1024B0007A72B1FBF2F1491C2184CAE702EB4202B5
:1024C000B0FBF2F080B2E8E740420F00A0860100C6
:1024D000008AC0B27047002A14BF41F0010101F028
:1024E000FE0101827047018270470029818B14BF71
:1024F00041F4806121F480618183704770B40222CD
:10250000848B00234FF0010C24F0BF0424F470648A
:1025100084830284848B8D68022D42D08A88002AAD
:1025200018BF4FF0020C2D4A136813F4000F03D0AC
:10253000136823F400031360294A13681268C3F375
:102540008813284DC2F302722D68274E05F03F050F
:10255000B6FBF5F56B43B3FBF2F2CB88B3F5007F26
:1025600032D04FEA4C13B2FBF3F202EB82028B68DB
:102570005200B2FBF3F2521D92B21C4B4FF6FF7C9D
:10258000A3FB0232D20802F00103D21AC2F34F02B7
:102590000CEA0323A2F1020CBCF1FE0F24BF0222BD
:1025A0000023B1F806C01A434CEA020202840A88EA
:1025B0004B881A438B88898919431143214341F47D
:1025C0000061818370BC7047120A02EB82028B6843
:1025D0005200B2FBF3F2521D92B2CEE7083802402D
:1025E000843802400438024000127A00CDCCCCCCB2
:1025F000FEE7704710B4C27801780F244FF0010C49
:102600000AB3174A126801F1E02102F4E062C2F550
:10261000E062C2F30722C2F10403D44042789A4038
:10262000837823401A43120181F80024007800F0D7
:102630001F010CFA01F14009800000F1E020C0F810
:10264000001110BC704701F01F000CFA00F049099E
:10265000890001F1E021C1F8800110BC7047000041
:102660000CED00E0034940F0FD7040F08060086030
:10267000704700000CED00E070470000044A00299C
:10268000116814BF084321EA000010607047000081
:1026900030380240044A0029116814BF084321EA77
:1026A000000010607047000040380240044A0029D2
:1026B000116814BF084321EA000010607047000051
:1026C00020380240044A0029116814BF084321EA57
:1026D000000010607047000044380240044A00299E
:1026E000116814BF084321EA000010607047000021
:1026F00024380240254A30B41168254B11F00C01F2
:1027000006D05C10042908BF046002D008291ED03E
:10271000036011680F2303EA11111E4B595CD0F8B6
:1027200000C02CFA01F14160D2F800C0072404EA8D
:102730009C2C13F80CC021FA0CFCC0F808C01268DD
:1027400004EA52329A5CD140C16030BC70471249F1
:10275000D1F800C0CCF38055D1F800C0002D0CF0AA
:102760003F0C14BFB4FBFCF3B3FBFCF3D1F800C087
:102770000968CCF3881C03FB0CF3C1F30141491C2D
:102780004900B3FBF1F10160C3E7000008380240E3
:102790000024F400700100200438024010B5124CEF
:1027A0006021204600F085F8002808BF10BD2046B3
:1027B00000F0A3F80E4C41BA0C4A206922F8101020
:1027C000401C2061402838BF10BD0020094B20610B
:1027D000642203F154006169FDF761FD6069BDE8A1
:1027E0001040102100F0FEBA00380040E820002020
:1027F0001C0000209420002010B50D4C0221204622
:1028000000F050F8002808BF10BD0A4800690228EF
:1028100005D1FFF734FA01460420FFF7BFF8FFF7B0
:102820002EFA01462046BDE8104000F068B80000CE
:10283000003C004030010020002A828814BF114370
:1028400022EA01018180704710B5A0F18041B1F505
:10285000983111D011F5784119D0B1F5806118BFC8
:1028600010BD0121C803FFF721FFBDE81040002182
:102870004FF40040FFF71ABF01210803FFF72EFFB6
:10288000BDE8104000214FF48050FFF727BF012121
:102890008803FFF70BFFBDE8104000214FF4804094
:1028A000FFF704BF0246002012890A4218BF012028
:1028B000704701F00F034FF0010C0CFA03F30022F4
:1028C00009090CFA01F1B0F804C09BB289B2008981
:1028D0000CEA010118421CBF002901221046704772
:1028E0000909012303FA01F1002A828889B214BF81
:1028F000114322EA010181807047808970478181FC
:102900007047000010B504460E4882B0012150F80F
:102910002400FFF7B3FE0C48002130F814000090AB
:1029200001208DF804008DF806108DF807000220B4
:102930008DF805000548694650F82400FFF790FC23
:1029400002B010BDD0300008C830000820010020BF
:102950000349044A31F8101052F8200041837047AF
:10296000C8300008200100200349044A31F8101043
:1029700052F8200001837047C83000082001002071
:10298000044951F820104A69034B33F810005040B5
:102990004861704720010020C830000870B5044627
:1029A00021480E4686B050F824000121FFF766FE4C
:1029B00001218803FFF786FE00251C488DF814507E
:1029C0008DF8175030F814000490194804A950F8F5
:1029D0002400FFF745FC012E1CBF06B070BD154852
:1029E000015D401E005D00F02CF8134830F8140023
:1029F00000908DF8045008208DF8050001258DF811
:102A000006506846FFF7E4FB0C48005D8DF80800AF
:102A10000F208DF809008DF80A008DF80B5002A8E0
:102A2000FFF7E8FD06B070BDC4300008C0300008F4
:102A30001C010020BD300008C2300008BE30000874
:102A400070478A0721F0030101F1804101F59831B7
:102A5000120F0F23D1F808C893402CEA0303C1F8E2
:102A60000838D1F8083890401843C1F80808704772
:102A700010B5354CA068401CA0603448016811F0C6
:102A8000020F03D0A16811F03F0F07D0006810F0CB
:102A9000020F06BFA06810F07F0F10BD207800F075
:102AA000030001280BD0022805D0032804BF022010
:102AB000FFF766FF06E00220FFF756FF02E0022064
:102AC000FFF746FF207800F00C0004280BD0082800
:102AD00005D00C2804BF0120FFF752FF06E00120BB
:102AE000FFF742FF02E00120FFF732FF207800F0FD
:102AF000300010280BD0202805D0302804BF00203B
:102B0000FFF73EFF06E00020FFF72EFF02E0002067
:102B1000FFF71EFF207800F0C00040280ED080286C
:102B200007D0C02818BF10BD0320BDE81040FFF734
:102B300027BFBDE810400320FFF716BFBDE81040D7
:102B40000320FFF705BF0000040000200000002064
:102B50003F4882B0016841F4700101603D4801685E
:102B600041F0010101603C4900230B60026822F43E
:102B7000102222F08072026000F1040C374ACCF877
:102B80000020026822F4802202600A1D1360019373
:102B90000093026842F480320260026802F400325C
:102BA0000092019A521C0192009A1AB9019AB2F548
:102BB000A06FF2D1026812F4003F08BF009331D039
:102BC00001220092264A136843F080531360254A7D
:102BD000136843F4804313600A680A600A6842F489
:102BE00000420A600A6842F4A0520A601E4ACCF809
:102BF0000020026842F080720260026812F0007FDA
:102C0000FBD01A4B40F205621A600A6822F00302F8
:102C10000A600A6842F002020A600A6802F00C02C6
:102C2000082AFAD10A6822F400020A60114A1049FF
:102C30001160016841F080610160016811F0006F6E
:102C4000FBD00D494FF00060086002B070470000F3
:102C500088ED00E0003802400838024010300024BF
:102C6000403802400070004008544007003C0240D9
:102C7000804000308438024008ED00E0FEE70000AC
:102C800000F08EF84FF47A540120FFF7F1F9224654
:102C90003F4C04202178FEF7F5FF6088B0F5806F87
:102CA000FBD33C4DA0884FF4007105F5006606EBA0
:102CB000400000F081F940F2FF10A18836F81110B1
:102CC00025F8021BA18836F8111025F8021BA188EF
:102CD000491CB1F5C06F2EBF0021A188491CA180FD
:102CE000401EB0F1FF3FE8DC4FF400612A48FEF7D8
:102CF000A7FC012060702949302008706078012805
:102D0000FCD0254DA0884FF4007106EB400000F088
:102D100053F940F2FF10A18836F8111025F8021B74
:102D2000A18836F8111025F8021BA188491CB1F5BD
:102D3000C06F2EBF0021A188491CA180401EB0F1A8
:102D4000FF3FE8DC60780028FCD0124DA0884FF4EB
:102D5000007106EB400000F02FF940F2FF10A1884F
:102D600036F8111025F8021BA18836F8111025F845
:102D7000021BA188491CB1F5C06F2EBF0021A1889C
:102D8000491CA180401EB0F1FF3FE8DCB6E700001F
:102D900010000020940C0020940400200400002067
:102DA00010B5012210214FF4FA4000F05BF80B48F7
:102DB000094A10210368002B08BF10BD4261C160A1
:102DC000074C012260212046FFF78AFD2046BDE81E
:102DD00010400121FFF789BBC82000201C00002003
:102DE000003800402DE9F04100241C4D2246002906
:102DF00012DD47F6BC7C1A4ECCF1000730F9023BDD
:102E00006345B4BF9F420124B5F802809044521C30
:102E100026F818308A42F1DB68880844B0F5C06FA4
:102E2000AEBF0020688808446880A86868B1401E6A
:102E3000A86004BF0220FFF78BFD002C08BFBDE88F
:102E4000F0813220A860BDE8F081002C08BFBDE809
:102E5000F0810220FFF788FDF3E70000100000205A
:102E6000941400202DE9F047434D84B0174628689C
:102E7000884600281EBF002004B0BDE8F0873F4808
:102E8000016841F4805101603E489FED3D0A4FF4D6
:102E90007A5180ED010A9FED3C0A012480ED020A7F
:102EA0000180C4818481FDF78BF901210620FFF7A1
:102EB000E5FB01210620FFF7E1FB02208DF804006D
:102EC00000268DF806608DF807608DF80500400239
:102ED000DFF8B890009069464846FFF7C1F905222F
:102EE0000A214846FFF704FADFF8A4A04FF00809CA
:102EF00069465046CDF80090FFF7B2F9052203214C
:102F00005046FFF7F5F9A002FFF7ACFB24208DF83F
:102F100000008DF801408DF802608DF8034068468E
:102F2000FFF768FB01218803FFF7B4FBDFF864A01B
:102F30005046FFF789FC4FF4FA4002902020ADF88C
:102F400002004FF44070ADF80460ADF80000ADF839
:102F50000C90ADF8066069465046FFF7CFFA0122A3
:102F600060215046FFF7BCFCAF60C5E9004804B0E3
:102F70000020BDE8F08700001C000020303802402F
:102F80000000FA45942000200000000000040240E8
:102F9000000802400038004002E008C8121F08C1C3
:102FA000002AFAD170477047002001E001C1121FCA
:102FB000002AFBD1704700002DE9F8431E4D8046E2
:102FC0000F46286810F0010F08BFBDE8F8831B4CBE
:102FD000207818B16068296888421DD028684FF4AD
:102FE000007610F0010F07D0154B164A3821A3F2D6
:102FF0000C400096FDF7D1FF286810F0020F07D0B3
:103000000F4B114A3821A3F20C400096FDF7C5FF83
:1030100028686060012020700C4A4FF4007341461C
:10302000A2F10C00FDF7CAFE3A464146BDE8F8435E
:103030000648FDF7C9BF0000000000203400002052
:10304000742500203C000020AC00002074210020EA
:103050000120FFF757FC0020FFF754FC0220FFF788
:1030600051FC0320FFF74EFC0120FFF77DFC1148C7
:10307000FFF740FB0F484FF47A714068B0FBF1F066
:10308000B0F1807F0DD220F07F40411E4FF0E02054
:103090004161094AF02182F8141D00218161072154
:1030A000016101210020FFF779FC4BF68030FFF72A
:1030B000E7FDFEE7840400200FE000E000000600CA
:1030C000010001000100000000100020004000800D
:1030D00008000000080000000800000008000000D0
:1030E000003100080000002084040000441500089E
:1030F00010340008840400209C290000A82F000838
:103100000110F26432100217011427FF28127812FE
:10311000ED180C6E01DB010F02EA015A0164141074
:103120000CDCFDCEFC4DFCA0FCF6FD56101A9A03FB
:103130007007660BFB0EB11127132713B111FB0E9D
:10314000660B70079A03561CF6FDA0261008CEFCED
:10315000DCFD27FF641C5A01EA421EDB016E01ED13
:10316000521A28460114100A72FDE3018901410137
:10317000DE124C100E94FFD5FE41FE0BFE5AFE38B7
:10318000FF881828080257030804B9032E0260FFBD
:1031900084FB0EF798F2CAEE3CEC556B3CECCAEEA1
:1031A00098F20EF784FB60FF2E02B924192813024F
:1031B000881C38FF5A3C100841FED5FE94FF4C1283
:1031C000DE1A41580510E30172FD130240DA0C04C7
:1031D000316AFF9E13C0125201122017B8600240DC
:1031E0000C3C3920622F32282224334020322282A4
:1031F000212D0102030404550607080928441C1563
:10320000310F2B24400A261F3B19352E4A06221B5C
:103210003715312A46102C25411F3B3450031F1807
:1032200034122E27430D29223E1C38314D09251E0C
:103230003A18342D49132F2844223E3753011D16C6
:10324000322C281D0B27203C1A362F4B07231C3805
:1032500016322B47112D2642203C355104201935BA
:103260002C68090E2A233F1D39324E6808097F1445
:10327000302945233F385480681012152717292C10
:103280003E182A2D3F2F4144560828093042455701
:1032900047595C6E1C2D2E404355146D46585B6D8E
:1032A00008291C68155E70738515272A3C2C3E4141
:1032B000532D3F42544456596B08280945575A6CC0
:1032C0005C6E71831C2D4355586A146D5B6D708262
:1032D00008291C68157385889A12242739293B3ED2
:1032E000502A3C3F514153566808280942545769B7
:1032F000596B6E801C2D40525567146D586A6D7F56
:1033000008291C68157082859727393C4E3E50531A
:10331000653F51546656686B7D08280957696C7E75
:103320006E8083951C2D55676A7C146D6D7F829429
:1033300008291C2585979AAC180E01010303040483
:103340000606070709090A01181E0B0B0D0D0E0EC4
:1033500010101111131314140F0F10101212131355
:103360001515161618181901680F1A1A1C1C1D1DA0
:103370001F1F2020222223231818081B1B1C1C1E81
:103380001E1F014918181825252626282829292412
:10339000242525272728282A2A2B2B2D2D2E01A846
:1033A0000F2F2F3131323234343535373738384CEE
:1033B0002934A8152626272729292A2A2C2C2D2D01
:1033C0002F2F30302B2B2C2C34A811353536363896
:1033D0003839393B3B3C3C3E3E3F3F4C1C3A3A3B44
:1033E0000149181818414142424444454540404172
:1033F00041434344444646474749494A01000F0078
:103400004B4B4D4D4E4E5050515153535454000060
:040000050800018965
:00000001FF
