:020000040800F2
:1000000090EC00209D0100085D25000833240008C5
:100010005B25000819200008795600080000000040
:10002000000000000000000000000000C1290008DE
:100030003521000800000000F1250008F129000822
:10004000B7010008B7010008B7010008B7010008B0
:10005000B7010008B70100086D210008FD21000864
:10006000B7010008B7010008B701000831200008F7
:10007000B7010008B7010008B7010008B701000880
:10008000B7010008B7010008B7010008B701000870
:10009000B7010008B7010008B7010008B701000860
:1000A000B7010008B7010008B7010008B701000850
:1000B000B7010008B7010008B7010008B701000840
:1000C000B7010008B7010008B7010008B701000830
:1000D0002D270008B7010008B7010008B701000884
:1000E000B7010008B7010008B7010008B701000810
:1000F000B7010008B7010008B70100083520000863
:10010000B7010008B7010008B701000889270008F7
:10011000B7010008B7010008B7010008B7010008DF
:10012000B7010008B7010008B7010008B7010008CF
:10013000B7010008B7010008B7010008B7010008BF
:10014000B7010008B7010008B7010008E52500085D
:10015000B7010008B7010008B7010008B70100089F
:10016000B7010008B7010008B7010008B70100088F
:10017000B7010008B7010008B7010008B70100087F
:10018000B7010008B7010008DFF80CD001F072FEDB
:1001900000480047496B000890EC00200648804763
:1001A00006480047FEE7FEE7FEE7FEE7FEE7FEE75C
:1001B000FEE7FEE7FEE7FEE7D12A00088901000816
:1001C0002DE9F05F0446FF48FD4901600268FE48E2
:1001D000FE490026824232D10860E661A66166616E
:1001E0002661A662666226626068DFF8E4A3DFF833
:1001F000E4B304F11005814610F0FF4F21D02088B0
:1002000001F05BFD52465B4601F0E8FC074688467C
:10021000484601F078FD3A46434601F0C6FB0746E2
:1002200088460821484601F0B4FB01F06CFD3A46CF
:10023000434601F0D3FC01F04DFDA88302E00E60BF
:10024000FEE7AE83A76817F0FF4F1FD0B4F8008019
:10025000404601F032FD06468946384601F053FD1E
:1002600052465B4601F048FC4B46324601F09DFB8E
:1002700006460F464FEA082001F01FFD32463B4676
:1002800001F0ACFC01F026FDE88300E0EE8320885D
:100290004FF47A71B0FBF1F02884BDE8F09F2DE9AE
:1002A000FF4FCA49C84A97B00968914200D0FEE79B
:1002B0001A99103100250A6903924A6908928A69DD
:1002C0000792D1E901620C680592CA6806921A9AEF
:1002D0008B8B92890993CB8B0E9316E10778BE4BDB
:1002E000A3F5807813F807C0B444CDF844C018F8DB
:1002F000076010F802A004EB4606A3F5007413F89B
:100300000AC0E75D0CEB0609CDF82C9010F81290AE
:1003100018F80A6007EB460613F809C014F80A70CB
:100320000CEB060E18F8096002EB420C07EB4606D0
:1003300014F80970CDF84CC010F80C9013F809C0EF
:100340000CEB060B18F8096007EB460614F8097069
:1003500010F8229013F809C0B444CDF848C018F83A
:10036000096002EB820C07EB460614F8097010F8DE
:100370000C9013F809C00CEB060A18F80960DDF8B8
:100380004CC007EB460614F8097010F81C9013F8DF
:1003900009C0B444CDF850C018F8096014F809C079
:1003A00007EB4606C2EBC207DDF82C90C75DDB5DAC
:1003B0003344139318F80730E45D0CEB4306C9EBA4
:1003C000C903DDF844C003EB4307CCEBCC0307EBD8
:1003D0008303CEEB0E1C63440BEB8B0C03EB4C0343
:1003E000DDF848C00CEB4C0803EB48030AEB4A0C61
:1003F0006344DDF850C09C44069B6344DDF844C070
:1004000001930CEBCC039B0003EB4703CEEBCE0731
:1004100007EB0E1703EB47030BEB4B0703EB07133D
:10042000CAEBCA0703EB081307EB0A17DDF850C045
:1004300003EB4703CCEBCC0707EB470803EB48077C
:10044000139BDDF848C003EBC30307EB8307059B51
:100450000CEB8C0C3B4406930BEB4B070EEB4E0363
:100460007F004B4407EB4C073B44CAEB0A173B4465
:1004700003EB0807139BC3EBC30307EB830305934D
:10048000019B0E9FA3F500338FB1039F07EB030C75
:10049000089FACEB0707DDF838C007FB0CF74FEA05
:1004A000E77C07EB1C673F12039708933B46099FC5
:1004B00077B1DDF81CC0C7F5807707FB0CF7DDF8D6
:1004C00024C00CFB0373DF1703EB17631B120793A6
:1004D000199F7B43002B01DD083300E0083BDF1749
:1004E00003EB17733D4F1B11BB4203DB7F42BB4243
:1004F00000DC1F463B461A9FDDF860C000EBC200DF
:10050000FF896F436D1C2CF817300B8CAB423FF703
:10051000E5AEC1E90046059888600698C860039872
:100520000861089848610798886198B21BB0BDE8D7
:10053000F08F2DE9FF4F2549234A97B00968914272
:1005400000D0FEE71A99103100250A6903924A6922
:1005500008928A690792D1E901620C680592CA681B
:1005600006921A9A8B8B92890993CB8B0E9328E172
:100570000778194BA3F5807813F807C0B444CDF879
:1005800044C018F8076010F802A004EB4606A3F573
:10059000007413F80AC0E75D0CEB0609CDF82C9047
:1005A00010F8129018F80A6007EB460613F809C015
:1005B00014F80A700CEB060E18F8096010E0000041
:1005C000C2A507F400300240CDB5E8B52C010020EB
:1005D0001F85EB51B81E1940300300204480FFFFF7
:1005E00007EB460614F8097002EB420CCDF84CC03C
:1005F00010F80C9013F809C00CEB060B18F8096002
:1006000007EB460614F8097010F8229013F809C099
:10061000B444CDF848C018F8096002EB820C07EB2F
:10062000460614F8097010F80C9013F809C00CEB8A
:10063000060A18F80960DDF84CC007EB460614F806
:10064000097010F81C9013F809C0B444CDF850C0DC
:1006500018F8096014F809C007EB4606C2EBC20798
:10066000DDF82C90C75DDB5D3344139318F8073039
:10067000E45D0CEB4306C9EBC903DDF844C003EBB2
:100680004307CCEBCC0307EB8303CEEB0E1C634498
:100690000BEB8B0C03EB4C03DDF848C00CEB4C0868
:1006A00003EB48030AEB4A0C6344DDF850C09C445A
:1006B000069B6344DDF844C001930CEBCC039B0024
:1006C00003EB4703CEEBCE0707EB0E1703EB470315
:1006D0000BEB4B0703EB0713CAEBCA0703EB08133B
:1006E00007EB0A17DDF850C003EB4703CCEBCC0750
:1006F00007EB470803EB4807139BDDF848C003EB03
:10070000C30307EB8307059B0CEB8C0C3B44069360
:100710000BEB4B070EEB4E037F004B4407EB4C07F4
:100720003B44CAEB0A173B4403EB0807139BC3EB9C
:10073000C30307EB83030593019B0E9FA3F50033CF
:100740008FB1039F07EB030C089FACEB0707DDF8A5
:1007500038C007FB0CF74FEAE77C07EB1C673F123A
:10076000039708933B46099F77B1DDF81CC0C7F596
:10077000807707FB0CF7DDF824C00CFB0373DF1751
:1007800003EB17631B120793199F7B43002B01DDBB
:10079000083300E0083BDF1703EB1773FE4F1B1114
:1007A000BB4203DB7F42BB4200DC1F463B461A9F35
:1007B000DDF860C000EBC200FF896F436D1C2CF8B0
:1007C00017300B8CAB423FF7D3AEC1E9004605981A
:1007D00088600698C860039808610898486107987F
:1007E000886198B2A2E62DE9FF4FEC49EC4A97B038
:1007F0000968914200D0FEE71A99103100250A6974
:1008000003924A6908928A690792D1E901620C68E9
:100810000592CA6806921A9A8B8B92890993CB8BA0
:100820000E9317E1DD4B07781B1D03F5807813F855
:1008300007C0B444CDF844C018F8076010F802A00F
:1008400004EB460603F5007413F80AC0E75D0CEBF1
:100850000609CDF82C9010F8129018F80A6007EBF2
:10086000460613F809C014F80A700CEB060E18F8C7
:10087000096002EB420C07EB460614F80970CDF84C
:100880004CC010F80C9013F809C00CEB060B18F8CC
:10089000096007EB460614F8097010F8229013F867
:1008A00009C0B444CDF848C018F8096002EB820CC6
:1008B00007EB460614F8097010F80C9013F809C0FD
:1008C0000CEB060A18F80960DDF84CC007EB460689
:1008D00014F8097010F81C9013F809C0B444CDF84E
:1008E00050C018F8096014F809C007EB4606C2EBBF
:1008F000C207DDF82C90C75DDB5D3344139318F815
:100900000730E45D0CEB4306C9EBC903DDF844C0D6
:1009100003EB4307CCEBCC0307EB8303CEEB0E1CBE
:1009200063440BEB8B0C03EB4C03DDF848C00CEB82
:100930004C0803EB48030AEB4A0C6344DDF850C053
:100940009C44069B6344DDF844C001930CEBCC034C
:100950009B0003EB4703CEEBCE0707EB0E1703EB31
:1009600047030BEB4B0703EB0713CAEBCA0703EB79
:10097000081307EB0A17DDF850C003EB4703CCEB75
:10098000CC0707EB470803EB4807139BDDF848C08B
:1009900003EBC30307EB8307059B0CEB8C0C3B4479
:1009A00006930BEB4B070EEB4E037F004B4407EB1C
:1009B0004C073B44CAEB0A173B4403EB0807139B65
:1009C000C3EBC30307EB83030593019B0E9FA3F5C2
:1009D00000338FB1039F07EB030C089FACEB0707B5
:1009E000DDF838C007FB0CF74FEAE77C07EB1C6724
:1009F0003F12039708933B46099F77B1DDF81CC06F
:100A0000C7F5807707FB0CF7DDF824C00CFB0373F8
:100A1000DF1703EB17631B120793199F7B43002B10
:100A200001DD083300E0083BDF1703EB17735A4F73
:100A30001B11BB4203DB7F42BB4200DC1F463B462F
:100A40001A9FDDF860C000EBC200FF896F436D1C88
:100A50002CF817300B8CAB423FF7E4AEC1E90046EF
:100A6000059888600698C8600398086108984861EE
:100A70000798886198B259E52DE9FF4F4749484AE0
:100A800098B00968914200D0FEE71B99103100250B
:100A90000A6902924A6906928A690492D1E901625E
:100AA0000B680592CA6808921B9A94898A8B0992EE
:100AB000CA8B10926BE1394A0778121D02F58078D3
:100AC00012F807C0B444CDF858C018F8076010F801
:100AD00004A003EB460602F5007312F80AC0DF5DBE
:100AE0000CEB0609CDF8289010F8149018F80A605D
:100AF00007EB460612F809C013F80A70B444CDF8A3
:100B00002CC018F8096004EB440A07EB460613F8FA
:100B1000097010F80A9012F809C0B444CDF838C032
:100B200018F8096007EB460613F8097010F82490CE
:100B300012F809C0B444CDF83CC018F8096004EBC1
:100B4000840C07EB460613F80970CDF854C010F872
:100B50000C9012F809C0B444CDF844C018F80960EC
:100B600007EB460613F8097010F81A9012F809C03E
:100B70000CEB060E18F80960C4EBC40C07EB460634
:100B800013F8097010F80C9012F809C00CEB060A63
:100B900018F8096006E000004480FFFF2C010020E7
:100BA000CDB5E8B507EB460613F8097010F8349098
:100BB00012F809C00CEB060B18F8096013F809C00D
:100BC00007EB460604EBC407DDF82890C75DD25D4D
:100BD000DB5D324418F807600CEB4606DDF858C0C0
:100BE000CCEB0C1707EB470709EBC90C07EB8C079D
:100BF000DDF82CC0CCEBCC0C07EB8C07DDF838C053
:100C0000CCEBCC0C0CEB4C0C6744DDF83CC0CCEBD3
:100C10000C1C6744DDF844C00CEB8C0C07EB4C0754
:100C20000EEB4E0C07EB4C070AEB4A0C674407EB44
:100C30000B0C089F6744DDF858C001970CEBCC07FC
:100C4000C7EB8C17C9EB891C6744DDF82CC00CEB93
:100C50008C0808EB8C1C6744DDF838C00CEBCC0822
:100C600008EB8C1C6744DDF83CC00EEBCE08CCEBE7
:100C70000C1C0CEB8C0C6744DDF844C0CCEB0C1C5A
:100C80000CEB8C0C674408EB8E1C67440AEB8A085B
:100C900008EB8A1C6744CBEB8B1C674402EBC20C4D
:100CA000CCEB821CBC44059FC2EB02126744DDF80A
:100CB0002CC008970CEB4C07DDF838C04F440CEB08
:100CC0004C0C4FEA4C08DDF83CC002EB42020CEB46
:100CD0008C0C08EB4C0C6744DDF844C0CCEB0C1CCE
:100CE0006744CEEBCE0C0CEB4C0C6744CAEBCA0C41
:100CF00007EB8C070BEBCB0C07EB8C073A44059208
:100D0000019F109AA7F57A378AB1029A02EB070C75
:100D1000069AACEB0202DDF840C0069702FB0CF22B
:100D20004FEAE27C02EB1C62121202921746099A09
:100D30007AB1DDF810C0C2F5807202FB0CF2DDF86A
:100D400024C00CFB0722D71702EB176212121746BA
:100D500004921A9A5743002F01DD103700E0103F2C
:100D6000FA1707EBD262144F5211BA4203DB7F42EB
:100D7000BA4200DC17463A461B9FDDF864C0FF8983
:100D80006F436D1C2CF81720159A00EB42000A8C5B
:100D9000AA423FF790AEC1E90036059888600898EE
:100DA000C8600298086106984861049888611CB080
:100DB00090B2BDE8F08F00004480FFFF2DE9F041C4
:100DC00004460D469046960858D000BF34F9021BE1
:100DD00034F9020B21FB01F120FB00F04FEAE07334
:100DE000081843EBE1714FEA504040EAC13005F189
:100DF000020700B2294600F0E3F934F9021B34F986
:100E0000020B21FB01F220FB00F0BD1CC3171018E0
:100E100043EBE2714FEA504040EAC13000B239463C
:100E200000F0CEF934F9020B34F9021B20FB00F07C
:100E300021FB01F2AF1CC317801843EBE2724FEAAB
:100E4000504040EAC230294600B200F0B9F934F906
:100E5000020B34F9021B20FB00F021FB01F1BD1C49
:100E6000C217401842EBE1714FEA504040EAC130EE
:100E700000B2394600F0A4F9761EA7D118F0030697
:100E800008BFBDE8F08100BF34F9020B34F9021B42
:100E900020FB00F021FB01F14FEAE073401843EB27
:100EA000E1714FEA50402A4640EAC13005F102059F
:100EB00000B2114600F084F9761EE5D1BDE8F0815C
:100EC00070B51B4EDDF810C092B20661550806F5EC
:100ED00080564661C0E90025DBB20024037280F829
:100EE00009C0802A04BF1022C2600BD0B2F5007F77
:100EF00008BF042212D0B2F5006F14BF4FF0FF34C8
:100F000001220BD0002B8C4681614FF0010307D0EA
:100F100001222946604600F00BFA06E0C260F1E7C4
:100F200000222946604600F003FA204670BD00000A
:100F3000207100082DE9F84F0588DDE90AC420F882
:100F4000215000EB810745887D8002EB8405061D5A
:100F50003F1F012203EB8403012984BF4FEA81086C
:100F6000CDF8008030D900BF56F8049BD5F800A01A
:100F700049FB0AFE57F804B9D3F800802BFB08EEB2
:100F80004FEADE3E4BFB18F829FB1A880CEB82096E
:100F90002CF822E04FEAE838A9F80280DDF800904A
:100FA000C2F1000A09EB4A09C8F100082CF819E05F
:100FB0000CEB490902F10102A9F8028003EB84035A
:100FC00005EB84059142CFD802884388D21A2CF8C9
:100FD00021200CEB810100224A80018840880844CE
:100FE000ACF80000ACF80220BDE8F88F2DE9F0075E
:100FF00000EB8104DDE907C5002904BFBDE8F00767
:10100000704700BF54F80479D3F8009047FB09FA01
:1010100050F8046BD2F8008026FB08AA4FEADA3AAF
:1010200027FB19F7C7F1000748FB16764FEAE636AB
:10103000CAEA06464CF8046B03EB850302EB850213
:10104000491EDFD1BDE8F00770472DE9F74F82B0A8
:101050000D4602988469007A01280AD0A389218864
:101060002846626800F0DBF90298407A012841D0F6
:1010700046E002990298049ED1E9043C4068CF689A
:1010800005EB800100B300BF51F80499DCF800A023
:1010900049FB0AFE55F804BBD3F800802BFB08EE91
:1010A0004FEADE3E29FB1AF2C2F1000248FB1B2286
:1010B0004FEAE232CEEA024246F8042B0CEB870CF0
:1010C00003EB8703401EDFD1A3892188626804985F
:1010D00000F0D8FA0298407A01281CBF05B0BDE89C
:1010E000F08FE2892188A368049805B0BDE8F04F2D
:1010F00000F056B9E28921882846A36800F050F92B
:101100000298029A049CD0F804B001694069D26840
:101110002B8825F82B3005EB8B066B88738001EB51
:101120008203AE4600EB820C291D351F0120BBF166
:10113000010F84BF4FEA8B0600962CD951F8048B1F
:10114000D3F8009048FB09FA55F80469DCF8007000
:1011500026FB07AA4FEADA3A46FB17F628FB196680
:1011600004EB800724F820A04FEAE6367E80009F3B
:10117000C0F1000807EB4807C6F1000624F817A0E5
:1011800004EB470700F101007E800CEB820C03EBBF
:1011900082038345D2D8BEF80000BEF80210401A80
:1011A00024F82B0004EB8B0100204880BEF80010CF
:1011B000BEF8022011442180608005B0BDE8F08FA8
:1011C000F8B5041E0E467EDD43F6FF7000EB6405A5
:1011D000564A6946284600F082F8BDF8002014FB04
:1011E00002F2121402FA00F000EB65054F4A69465C
:1011F00028B200F074F8BDF8002014FB02F21214BB
:1012000002FA00F000EB6505484A694628B200F092
:1012100066F8BDF8002014FB02F2121402FA00F086
:1012200000EB6505414A694628B200F058F8BDF860
:10123000002014FB02F2121402FA00F000EB650524
:101240003A4A694628B200F04AF8BDF8002014FB7B
:1012500002F2121402FA00F000EB6505334A694607
:1012600028B200F03CF8BDF8002014FB02F2121482
:1012700002FA00F000EB65052C4A694628B200F03E
:101280002EF8BDF8002014FB02F2121402FA00F04E
:1012900000EB6505254A694628B200F020F8BDF844
:1012A000002014FB02F2121402FA00F000EB6505B4
:1012B0001E4A694628B200F012F8BDF8002014FB5F
:1012C00002F2121400E006E002FA00F000EB650002
:1012D00030800020F8BD00200880401EF8BD10B40A
:1012E0000028CEBFB0FA80F34342B3FA83F3113B38
:1012F0009840C0F3052C32F91C2010FB02FC4FEA89
:10130000DC3C0FFA8CF447F6FF7CACEB0404624340
:10131000920B12B210FB02F0C00B00B2ACEB00005B
:101320005043800B088010BC581C704720A3000855
:1013300010B40180154C446082704FF0000CC370F3
:1013400010291CD0402915D0B1F5807F0DD0B1F502
:10135000806F18BF4FF0FF3C02D010BC6046704752
:1013600001218181C1810A490DE004218181C1816E
:10137000084908E010218181C181074903E040212B
:101380008181C18105498160E7E700002091000863
:1013900020A1000826A100083EA100089EA1000887
:1013A0002DE9F00F01244D084FF0000C04EB51071C
:1013B000012D9CBFBDE8F00F7047014600EB87048C
:1013C00000264FEA550814E0BCEB460F11D950F83F
:1013D0002CA0D1F80090C1F800A040F82C900CEBA4
:1013E000070AD4F8009050F82AB0C4F800B040F8CA
:1013F0002A90AC44D1F8049050F82CA0C1F804A075
:1014000040F82C90B3F800C008310834761C03EB88
:101410004203B8F10108D7D1BDE8F00F70472DE9BC
:10142000FF4F86B0079900928A0800218C469346A8
:1014300050F82C700CEB020404EB02050FFA87F84D
:1014400005EB02064FEAA707C7EAA80750F8258070
:101450000FFA88F94FEAA808C8EAA90897FA18F914
:10146000D7FA18F850F824700FFA87FA4FEAA7074E
:10147000C7EAAA0E50F826700FFA87FA4FEAA707B4
:10148000C7EAAA079EFA17F799FA27FA40F82CA09C
:10149000D9FA17F7DDF8009059F8319029FB07FACF
:1014A0004FEA1A4E49FB17FA50F824700FFA87F9E1
:1014B0004FEAA707C7EAA907CEEA0A0940F824902D
:1014C00050F826400FFA84F94FEAA404C4EAA904AC
:1014D000D7FA14F7A8FA17F4E8FA17F7DDF800803E
:1014E00058F8218028FB07F94FEA194948FB17F7FC
:1014F000C9EA070740F82570009D01EB410755F840
:10150000275025FB04F74FEA174745FB14F4C7EAB9
:10151000040440F8264019440CF1010CBBF1010B06
:1015200086D1990004920991042A75D90021059267
:10153000920801910291511ECDF80C10DDE90013C3
:1015400051F823B051F833A0009903EB430351F84D
:1015500023E0099B019919440191029B07998B4251
:101560004CD200BF03EB020C0CEB020450F823102A
:1015700050F8246004EB020591FA16F9D1FA16F836
:1015800050F82C1050F8256091FA16F799FA27F6C2
:1015900031B24FEA6606C6EA610640F82360D9FA1E
:1015A00027F62AFB06F14FEA11414AFB16F650F8DE
:1015B0002C70C1EA060140F82C1050F82510D7FA1B
:1015C00011FCA8FA2CF1E8FA2CFC2BFB0CF64FEAE4
:1015D00016464BFB1CFCC6EA0C0C40F824C02EFB44
:1015E00001FC4FEA1C4C4EFB11F1CCEA010140F822
:1015F000251005990B4407998B42B3D30299039B9D
:10160000491C0291994299D9099989000991049933
:1016100089080491042989D8079B4FEA920C00217C
:10162000A3EB020801EB0C0303EB0C0550F821605F
:1016300050F8259005EB0C0496FA19F7D6FA19F62E
:1016400050F8239050F824A099FA1AF997FA29FA39
:1016500040F821A0D7FA29F750F8239040F82370DA
:1016600050F82430D9FA13F3E6FA23F740F825703E
:10167000A6FA23F3114440F824308845D2D20AB0A8
:10168000BDE8F08F2DE9FF4F86B0079900928A08D8
:1016900000218C464FEA020B50F82C700CEB020430
:1016A00004EB02050FFA87F805EB02064FEAA707DD
:1016B000C7EAA80750F825800FFA88F94FEAA8086A
:1016C000C8EAA90897FA18F9D7FA18F850F8247058
:1016D0000FFA87FA4FEAA707C7EAAA0E50F8267052
:1016E0000FFA87FA4FEAA707C7EAAA079EFA17F781
:1016F00099FA27FA40F82CA0D9FA17F7DDF80090EC
:1017000059F8319049FB07FA4FEA1A4E29FB17FAAC
:1017100050F824700FFA87F94FEAA707C7EAA9071C
:10172000CEEA0A0940F8249050F826400FFA84F9CE
:101730004FEAA404C4EAA904D7FA14F7E8FA17F4A4
:10174000A8FA17F7DDF8008058F8218048FB07F960
:101750004FEA194928FB17F7C9EA070740F825702F
:10176000009D01EB410755F8275045FB04F74FEA70
:10177000174725FB14F4C7EA040440F8264019442F
:101780000CF1010CBBF1010B86D199000492099177
:10179000042A75D900210592920801910291511EE7
:1017A000CDF80C10DDE9001351F823B051F833A047
:1017B000009903EB430351F823E0099B0199194475
:1017C0000191029B07998B424CD200BF03EB020CA4
:1017D0000CEB020450F8231050F8246004EB0205CF
:1017E00091FA16F9D1FA16F850F82C1050F8256035
:1017F00091FA16F799FA27F631B24FEA6606C6EA69
:10180000610640F82360D9FA27F64AFB06F14FEA51
:1018100011412AFB16F650F82C70C1EA060140F877
:101820002C1050F82510D7FA11FCE8FA2CF1A8FA80
:101830002CFC4BFB0CF64FEA16462BFB1CFCC6EAB5
:101840000C0C40F824C04EFB01FC4FEA1C4C2EFB54
:1018500011F1CCEA010140F8251005990B440799D4
:101860008B42B3D30299039B491C0291994299D9A7
:10187000099989000991049989080491042989D852
:10188000079B4FEA920C0021A3EB020801EB0C032B
:1018900003EB0C0550F8216050F8259005EB0C0483
:1018A00096FA19F7D6FA19F650F8239050F824A0B2
:1018B00099FA1AF997FA29FA40F821A0D7FA29F7E4
:1018C00050F8239040F8237050F82430D9FA13F3DD
:1018D000A6FA23F740F82570E6FA23F3114440F8FE
:1018E00024308845D2D20AB0BDE8F08F2DE9F04F00
:1018F000054680780C462988AB896A68012820460D
:101900001AD0FFF78CFDE878012818BFBDE8F08FEA
:101910002888B5F80E80AA6801230021450803EB4A
:101920005007012D98BFBDE8F08F204604EB8703D8
:101930004FF0000C6E0818E0FFF7A4FEE3E700BFCD
:10194000B1EB4C0F11D954F821A0D0F80090C0F899
:1019500000A044F8219001EB070AD3F8009054F856
:101960002AB0C3F800B044F82A902944D0F8049073
:1019700054F821A0C0F804A044F821901188083040
:10198000083302EB48020CF1010C761ED8D1BDE8F9
:10199000F08F420005D0C0F3C7525242914201DCA1
:1019A0000020704700EBC15070472DE9FE4F804684
:1019B00081EA0300C00F0C46009021F0004123F0A3
:1019C0000045B8EB0200A94105D2404621469046A9
:1019D0001C460B46024623F00040104347D0270D1B
:1019E000C7F30A00C3F30A510290401A019040283D
:1019F0006BDAC3F3130040F4801B0098924620B1C9
:101A00000023D2EB030A63EB0B0B01985946C0F19C
:101A10004002504600F0A0F906460D465046594691
:101A2000019A00F0B8F910EB08006141002487EA40
:101A3000115284EAE7731A4340D0009A62B3019AC4
:101A4000012A4FEA075215DC001B61EB02014FF03F
:101A5000004202EA0752CDE90042001C41F5801124
:101A600032462B4600F0B8F903B0BDE8F08F40468F
:101A70002146F9E7001B61EB0201001C41F58013D0
:101A800000185B412018A2F5001747EB030140EA5C
:101A9000D570B6196D4111E06D084FEA360645EA7A
:101AA000C0754FEA0752001B61EB0201001C41F5B3
:101AB000801149084FEA30000019514132462B4647
:101AC00003B0BDE8F04F00F078B900980122400063
:101AD0000023D0EB020263EBE073009821464FEA4B
:101AE000E074B8EB000061EB0401E9E783F0004328
:101AF0005BE781F0004158E72DE9FE4F81EA0304DE
:101B000004F0004421F0004100944FF0000B23F05A
:101B1000004350EA01045ED052EA03045BD0C3F3F1
:101B20000A54C1F30A552C44A4F2F3340194A0FBE7
:101B30000254C1F3130141F48011C3F3130343F4BE
:101B4000801301FB024400FB034E840A970A44EA17
:101B5000815447EA8357A4FB076802958D0A05FB69
:101B600007854FEA932C04FB0C542705029D4FEA8E
:101B7000065847EA1637B5EB08056EEB070C870EDB
:101B8000920E47EA811742EA8312A7FB0201B6EBE5
:101B90000B0164EB00042B0D43EA0C335E1844EB9D
:101BA0001C50DA465146E7FB0201C5F313044FEA25
:101BB0000B3343EA14534FEA0432019C43EA060311
:101BC000A4F10C040294009CCDE900B400F004F9E7
:101BD00003B0BDE8F08F00200146F9E72DE9F04D94
:101BE00081EA030404F0004B21F0004514464FF055
:101BF000000A23F0004150EA050220D054EA010215
:101C00001DD0C5F30A570246C5F31303C1F31300F1
:101C1000C1F30A5640F4801543F48013A7EB06087D
:101C2000101BD64608F2FD3873EB050002D308F10D
:101C3000010801E092185B41B8F1000F03DA0020BF
:101C40000146BDE8F08D00204FF480110646844621
:101C50000EE0171B73EB050705D3121B63EB05039F
:101C600006434CEA010C49084FEA300092185B41E8
:101C700050EA0107EDD152EA030012D082EA0400D3
:101C800083EA0501084305D0101BAB4106D20122AF
:101C9000002306E000224FF0004302E06FF0010253
:101CA00053101AEB06004CEB085110EB0A0041EB05
:101CB0000B01BDE8F04D00F080B80EB540F23341A5
:101CC00002910021CDE900110A460B4600F084F88C
:101CD00003B000BDC1F30A5210B5C1F3130140F2C5
:101CE000FF3341F480119A4201DA002010BD40F226
:101CF00033439A42A2F2334203DC524200F03BF8F3
:101D000010BD904010BD00F0004230F000400AD0FD
:101D1000C10D01F56071C0F3160042EA0151C2081D
:101D200040071143704700200146704730B50B460D
:101D3000014600202022012409E021FA02F59D42FB
:101D400005D303FA02F5491B04FA02F52844151ECF
:101D5000A2F10102F1DC30BD202A04DB203A00FAB6
:101D600002F1002070479140C2F1200320FA03F3F2
:101D7000194390407047202A04DB203A21FA02F0F0
:101D80000021704721FA02F3D040C2F120029140B5
:101D9000084319467047202A06DBCB17203A41FA40
:101DA00002F043EAE07306E041FA02F3D040C2F1E8
:101DB0002002914008431946704710B5141E73F174
:101DC000000408DA401C41F1000192185B411A43FB
:101DD00001D120F0010010BD2DE9F04D92469B4647
:101DE00011B1B1FA81F202E0B0FA80F220329046ED
:101DF000FFF7B2FF04460F4640EA0A0041EA0B0132
:101E000053465A46084313D0114653EA010019D0ED
:101E1000C8F140025046FFF7AEFF05460E46504659
:101E200059464246FFF798FF084305D0012004E0D9
:101E300020463946BDE8F08D0020054346EAE076AD
:101E40002C4337430A986305E40AA0EB08000022FC
:101E5000FD0A44EA47540A3002D500200146E9E76A
:101E6000010510196941DDE9084500196941BDE81E
:101E7000F04DA2E7064C074D06E0E06840F0010394
:101E800094E8070098471034AC42F6D3FEF780F987
:101E9000A0A30008C0A3000870B58C1810F8015B5F
:101EA00015F0070301D110F8013B2A1106D110F8F3
:101EB000012B03E010F8016B01F8016B5B1EF9D1F7
:101EC0002B0705D40023521E0DD401F8013BFAE77D
:101ED00010F8013BCB1A921C03E013F8015B01F8E8
:101EE000015B521EF9D5A142D8D3002070BD4FF03E
:101EF000FF3070474FF0FF3070474FF0FF307047B2
:101F00004FF0FF3070474FF0FF30704710B5264C50
:101F1000A16AA06900F0B8F8002808BF10BDA06849
:101F2000002833D0A06900F0A6F80028FAD1A16AF1
:101F3000A06900F081F81D48E16B8160A168B1F5EE
:101F4000803F28BF4FF6FF7101611849A06900F07A
:101F5000B5F80121A06900F085F8A068B0F5803FD0
:101F600034BF01464FF6FF71E26B02EB4101E163C2
:101F700034BF01464FF6FF71A0EB0100A060A069DD
:101F8000BDE810404FF0010100F06CB80021A069DD
:101F900000F068F8A16AA06900F04EF8E06BBDE8B7
:101FA0001040002100F0CAB84C00002050DE002094
:101FB00010B5154CD4F810C0144A2346BCF1010FDB
:101FC0009B69906014D011611146184600F076F8B4
:101FD0000121A06900F046F80D48008810F4806FD8
:101FE00018BF10BD0121BDE810400A4800F022BA18
:101FF000480810610549184600F060F80121A06901
:1020000000F030F8E8E700004C00002050DE00202F
:102010001C3C0040003C0040FEE7A0F6F83081B0D8
:1020200000F1804000F500400090016001B0704771
:10203000FFF76CBFFFF76ABF064A904234BF0648FD
:10204000064811F0005F064A01EA020114BFC160B0
:1020500081607047106402400060024000640240EA
:102060007D0F7D0F0029016814BF41F0010121F0AF
:1020700001010160704701460020096811F0010F5D
:1020800018BF0120704700000246084B00209A420A
:1020900034BF074A074A11F0005F14BF5268126844
:1020A000054B1A400A4218BF0120704710640240D5
:1020B00000600240006402407D0F7D0F10B4026892
:1020C0001B4BD1F80CC01A400B6843EA0C03D1E952
:1020D00005C44CEA040C43EA0C03D1F81CC043EAE3
:1020E0000C03D1F820C043EA0C03D1F824C043EA22
:1020F0000C03D1F828C043EA0C03D1F834C043EAFA
:102100000C03D1F838C043EA0C031A430260426959
:10211000D1E90B3C22F0070243EA0C031A43426167
:102120000A6942604A6882608968C16010BC704771
:102130003F801CF0704700207047000010B5084C2D
:1021400060784FF4006128B10648FFF731FF0020A6
:10215000607010BD0448FFF72BFF0120F8E7000076
:10216000140000207CC900207CC1002010B5012093
:1021700000F05AF8002837D01E48C2684168C831BC
:10218000914231D28168491C816011F0010F1A49D6
:102190000A7816D022F0300242F020020A700A7843
:1021A00022F0C00242F040020A700A7822F00C02CB
:1021B00042F008020A700A7822F0030242F002029A
:1021C0000FE022F0030242F001020A700A7822F0C6
:1021D000C00242F080020A700A7822F0300242F017
:1021E00010020A70C1684160BDE81040012000F093
:1021F00015B80000000000201000002010B50220DB
:1022000000F012F8002808BF10BD012000F078FB94
:10221000BDE81040022000F001B80000014908604C
:1022200070470000143C0140054A00211268054B2C
:1022300002401B6803421CBF002A01210846704768
:10224000003C0140143C0140837921490268002B85
:1022500034D00B6823EA02020A60091D0A68036889
:102260009A430A60017901F1804101F59E310A68C3
:1022700003681A430A60174B196802689143196092
:102280001A1D1168D0F800C021EA0C0111604179D3
:10229000102908D001F1804101F59E310A680068DB
:1022A0001043086070471968D0F800C041EA0C017B
:1022B000196011680068084310607047007900F1E8
:1022C000804000F59E300168914301607047000036
:1022D000003C0140083C01402DE9F00100220125AD
:1022E0005FF00306D1F800C005FA02F30CEA030C14
:1022F0009C4533D107684FEA420C06FA0CF4A74319
:1023000007600F79D0F8008007FA0CF747EA080752
:1023100007600F79012F18BF022F14D18768A743D8
:1023200087604F79D0F8088007FA0CF747EA08076A
:102330008760476827EA0303436043688F799740C3
:10234000BFB23B434360C368A343C360CB7903FA86
:102350000CF3D0F80CC043EA0C03C360521C102AE3
:10236000C0D3BDE8F00170474B07DB0E9A40C908A7
:1023700000EB8100016A4FF00F0C0CFA03F3994354
:102380000162016A11430162704741837047018312
:1023900070474069806880B27047D0F8CC00006810
:1023A000C0F341407047084490F89B02704700EB2F
:1023B0008100D0F85002704710B500220446134641
:1023C000C0F8102204EB8200C0F81432C0F850327A
:1023D000A01880F88C32501CC2B20F2AF2D3082009
:1023E000A4F8B202204602F0BDFD204602F00CFC2B
:1023F000204602F0AFFA0121204602F043FE2046BB
:1024000002F062FB204602F007FC002010BDD0F86D
:102410001002704710B502F08DFD002010BD0022A3
:10242000431883F89B2200EB4113C3F8C02202F04B
:10243000B1BCFEE70029818B14BF41F4806121F417
:10244000806181837047000070B40222848B002376
:102450004FF0010C24F0BF0424F4706484830284E0
:10246000848B8D68022D42D08A88002A18BF4FF0D5
:10247000020C2D4A136813F4000F03D0136823F4E1
:1024800000031360294A13681268C3F38813284DA8
:10249000C2F302722D68274E05F03F05B6FBF5F535
:1024A0006B43B3FBF2F2CB88B3F5007F32D04FEA37
:1024B0004C13B2FBF3F202EB82028B685200B2FBC8
:1024C000F3F2521D92B21C4B4FF6FF7CA3FB02327B
:1024D000D20802F00103D21AC2F34F020CEA03231E
:1024E000A2F1020CBCF1FE0F24BF02220023B1F8BE
:1024F00006C01A434CEA020202840A884B881A4337
:102500008B88898919431143214341F400618183F8
:1025100070BC7047120A02EB82028B685200B2FB59
:10252000F3F2521D92B2CEE70838024084380240DE
:102530000438024000127A00CDCCCCCC4FF0FF30F2
:1025400070474FF0FF3070474FF0FF3070474FF04B
:10255000FF3070474FF0FF307047FEE770470000D4
:1025600010B4C27801780F244FF0010C0AB3174A57
:10257000126801F1E02102F4E062C2F5E062C2F308
:102580000722C2F10403D44042789A408378234062
:102590001A43120181F80024007800F01F010CFAA0
:1025A00001F14009800000F1E020C0F8001110BCEA
:1025B000704701F01F000CFA00F04909890001F191
:1025C000E021C1F8800110BC704700000CED00E074
:1025D000034940F0FD7040F08060086070470000E3
:1025E0000CED00E0014801F011BC0000C0E000204B
:1025F00070470000044A0029116814BF084321EA0B
:10260000000010607047000030380240044A002982
:10261000116814BF084321EA0000106070470000F1
:1026200034380240044A0029116814BF084321EAE3
:10263000000010607047000040380240044A002942
:10264000116814BF084321EA0000106070470000C1
:1026500020380240044A0029116814BF084321EAC7
:10266000000010607047000044380240044A00290E
:10267000116814BF084321EA000010607047000091
:1026800024380240254A30B41168254B11F00C0162
:1026900006D05C10042908BF046002D008291ED0AF
:1026A000036011680F2303EA11111E4B595CD0F827
:1026B00000C02CFA01F14160D2F800C0072404EAFE
:1026C0009C2C13F80CC021FA0CFCC0F808C012684E
:1026D00004EA52329A5CD140C16030BC7047124962
:1026E000D1F800C0CCF38055D1F800C0002D0CF01B
:1026F0003F0C14BFB4FBFCF3B3FBFCF3D1F800C0F8
:102700000968CCF3881C03FB0CF3C1F30141491C9D
:102710004900B3FBF1F10160C3E700000838024053
:102720000024F4008C0000200438024010B5124C44
:102730006021204600F07DF8002808BF10BD20462B
:1027400000F09BF80E4C41BA0C4A206922F8101098
:10275000401C2061402838BF10BD0020094B20617B
:10276000642203F154006169FDF799FD6069BDE8D9
:102770001040102102F0A4BF00380040D0DD00203E
:10278000200000207CDD002010B50D4C02212046E9
:1027900000F048F8002808BF10BD0A480069022868
:1027A00005D1FFF7C8FC01460420FFF736FCFFF710
:1027B000C2FC01462046BDE8104000F060B80000B1
:1027C000003C00404C00002010B5A0F18041B1F564
:1027D000983111D011F5784119D0B1F5806118BF49
:1027E00010BD0121C803FFF729FFBDE810400021FB
:1027F0004FF40040FFF722BF01210803FFF736FF27
:10280000BDE8104000214FF48050FFF72FBF012199
:102810008803FFF713FFBDE8104000214FF480400C
:10282000FFF70CBF0246002012890A4218BF0120A0
:10283000704701F00F034FF0010C0CFA03F3002274
:1028400009090CFA01F1B0F804C09BB289B2008901
:102850000CEA010118421CBF0029012210467047F2
:102860000909012303FA01F1002A828889B214BF01
:10287000114322EA0101818070478089704781817C
:102880007047000010B504460E4882B0012150F890
:102890002400FFF7AFFE0C48002130F81400009030
:1028A00001208DF804008DF806108DF80700022035
:1028B0008DF805000548694650F82400FFF70CFD27
:1028C00002B010BD90700008887000083C00002025
:1028D0000349044A31F8101052F820004183704730
:1028E000887000083C0000200349044A31F81010A9
:1028F00052F8200001837047887000083C000020D7
:10290000044951F820104A69034B33F81000504035
:10291000486170473C0000208870000870B504468C
:1029200021480E4686B050F824000121FFF762FED0
:1029300001218803FFF78EFE00251C488DF81450F6
:102940008DF8175030F814000490194804A950F875
:102950002400FFF7C1FC012E1CBF06B070BD154856
:10296000015D401E005D00F02CF8134830F81400A3
:1029700000908DF8045008208DF8050001258DF891
:1029800006506846FFF760FC0C48005D8DF80800B3
:102990000F208DF809008DF80A008DF80B5002A861
:1029A000FFF7DEFD06B070BD84700008807000087F
:1029B000380000207D700008827000087E700008DA
:1029C00070478A0721F0030101F1804101F5983138
:1029D000120F0F23D1F808C893402CEA0303C1F863
:1029E0000838D1F8083890401843C1F808087047F3
:1029F0003548C168491CC160816811F0020F03D0DD
:102A0000C16811F03F0F07D0816811F0020F06BFB7
:102A1000C06810F07F0F704710B52C4C207800F084
:102A2000030001280BD0022805D0032804BF022090
:102A3000FFF766FF06E00220FFF756FF02E00220E4
:102A4000FFF746FF207800F00C0004280BD0082880
:102A500005D00C2804BF0120FFF752FF06E001203B
:102A6000FFF742FF02E00120FFF732FF207800F07D
:102A7000300010280BD0202805D0302804BF0020BB
:102A8000FFF73EFF06E00020FFF72EFF02E00020E8
:102A9000FFF71EFF207800F0C00040280ED08028ED
:102AA00007D0C02818BF10BD0320BDE81040FFF7B5
:102AB00027BFBDE810400320FFF716BFBDE8104058
:102AC0000320FFF705BF00000000002010000020D9
:102AD0003F4882B0016841F4700101603D480168DF
:102AE00041F0010101603C4900230B60026822F4BF
:102AF000102222F08072026000F1040C374ACCF8F8
:102B00000020026822F4802202600A1D13600193F3
:102B10000093026842F480320260026802F40032DC
:102B20000092019A521C0192009A1AB9019AB2F5C8
:102B3000A06FF2D1026812F4003F08BF009331D0B9
:102B400001220092264A136843F080531360254AFD
:102B5000136843F4804313600A680A600A6842F409
:102B600000420A600A6842F4A0520A601E4ACCF889
:102B70000020026842F080720260026812F0007F5A
:102B8000FBD01A4B40F205621A600A6822F0030279
:102B90000A600A6842F002020A600A6802F00C0247
:102BA000082AFAD10A6822F400020A60114A104980
:102BB0001160016841F080610160016811F0006FEF
:102BC000FBD00D494FF00060086002B07047000074
:102BD00088ED00E000380240083802401030002440
:102BE000403802400070004008544007003C02405A
:102BF000804000308438024008ED00E010B5062423
:102C000003F095FA002808BF0024204610BD0000FC
:102C100010B582B0022420B90849002003F0D0FB8F
:102C200010B102B0204610BD01AA694604A003F00D
:102C300087FA041C18BF0324F3E700008CDE002091
:102C4000303A000070B5140006464FF0050508BF85
:102C5000012208D0012C08BF022204D0022C06D089
:102C6000032A0CD01EE003F0BDFBD8B90EE01222FF
:102C700003F0B8FB002808BF002513D10BE00A229F
:102C800003F0B0FB002808BF00250BE00025012C55
:102C900018BF022C06D13046F16803F0C6FA0028AE
:102CA00018BF0825284670BD10B5022430B9002190
:102CB000084603F085FB002808BF0024204610BD0D
:102CC00070B50A46054601460724104603F050FC3D
:102CD000002804DB002429460A2003F031FC2046AA
:102CE00070BD000010B5054C2078032804D00449BD
:102CF000A1F5966001F046FA207810BD9C000020F6
:102D000070E5002008B506490120084A087005480A
:102D10000090054B0121A2F5966000F01BFB08BD59
:102D20009C000020D8000020C400002070E5002096
:102D300010B4044600224FF6FF7C00BF00EB4203B4
:102D4000B3F88C3413F4004F05D0521CD2B2082AC9
:102D5000F4D3624607E0624505D041F4004004EB3D
:102D60004201A1F88C0410BCD0B2704710B500EB42
:102D7000431C01248CF8AE42CCE9AE129CF8C4127C
:102D8000002918BF02218CF8B4121946FFF747FB3F
:102D9000002010BD10B50C4600EB431C00218CF840
:102DA000AE12CCE9AE429CF8C522002A18BF02211F
:102DB0008CF8B4121946FFF732FB002010BD30B476
:102DC0004FF0020C81F814C04FF0010C81F815C0CF
:102DD0004FF0000CA1F816C00A8312F0800FA1F882
:102DE0001AC000EB431214BF82F8C4C282F8C5C2F5
:102DF000002330BC1A4600F019B8D0F8AC240121E9
:102E00001172D0F8AC0400218172704710B500EB4C
:102E1000431C01248CF8AE4202248CF8B442CCE965
:102E2000AE121946FFF7FBFA002010BD70B50C4634
:102E30001D4616464979FFF7B6FA01460120E378A8
:102E40000246012B11D0022B18BF70BD012902BF11
:102E5000E270002070BD032902BFE270022070BD45
:102E6000042904BFE270032070BD2178617009213C
:102E70002170A660A58122770221E17070BD10B596
:102E8000002400EB431C002A8CF8AE42CCE9AE12C1
:102E900004BF01218CF8C51206D09CF8C512002988
:102EA00008BF8CF8B44202D002218CF8B412194643
:102EB000FFF7B5FA002010BD10B500EB42134FF03C
:102EC000000C83F8AEC24FF0030C83F8B4C2C3F811
:102ED000B8120821C3F8BC121146FFF7A0FAC0B21D
:102EE00010BD0021C0F89014C0F89414C0F89814D4
:102EF00008467047D0F8AC2401215172D0F8AC04D8
:102F00000021C1727047082907D200EB4100B0F8D8
:102F10008C14C1F30E01A0F88C14002070472DE929
:102F2000F04780250D7506254FF4007C4D759146C0
:102F3000A1F816C04FF0000CA1F818C0884604464E
:102F400000F588724B46A1F81A90FFF76FFF070053
:102F50007DD194F8100188F8340094F8110188F8B4
:102F6000350094F8120194F8131108F1340500EBC0
:102F70000120A8F8360094F8140188F8380094F875
:102F8000150188F8390094F8160188F83A0094F889
:102F90001701E87194F8180108F13E0608F1500C89
:102FA000287204F58874B9F1090F54D928790228D8
:102FB00051D8002300284EDD20780444607804288E
:102FC00044D103EBC3003044217801706178417033
:102FD000A1788170E178C1702179017161794171C5
:102FE000A1798171E179C171217A0172027900219F
:102FF000022A29D8002A27DD227814446278052A7B
:103000001FD10CEBC10294F8008082F8008094F884
:10301000018082F8018094F8028082F8028094F89E
:10302000038082F8038094F8048094F80590491C8A
:1030300008EB0928A2F8048094F8068082F806803C
:1030400049B202798A42D7DC581C43B200E002E060
:1030500028799842B0DC3846BDE8F0872DE9F04188
:1030600080270F7506274FF4807C4F751646A1F810
:1030700016C04FF0000CA1F818C00D46044600F52C
:10308000887233464E83FFF7D1FE002818BFBDE893
:10309000F08194F8101105F8221F94F8111169704D
:1030A00094F8121194F81321082E01EB0221698083
:1030B00094F81411297194F81511697194F8161186
:1030C000A97194F81711E97198BFBDE8F08194F8DF
:1030D000181194F8192101EB0221298194F81A1191
:1030E00094F81B2101EB0221698194F81C1194F8DA
:1030F0001D2101EB0221A98194F81E11A97394F8F6
:103100001F11E97394F82011297494F8211169743E
:10311000BDE8F0812DE9F0418025069E0D7506255C
:1031200042F4407C4D75A1F816C01C460CF47F4C4F
:103130000025074600F588723346BCF5407F06BF80
:1031400040F2094CA1F818C00D834B83FFF76EFEC7
:10315000002818BFBDE8F08107F5887197F81121A4
:10316000032A18BFBDE8F0810A78931EB342D8BF86
:103170001E46320401F10203120C4FF0000107D089
:1031800013F801C0891C89B204F801CB8A42F7D830
:103190002570BDE8F08100002DE9F04100260746CA
:1031A0008E74087F0C460C2880F0CE80DFE800F09B
:1031B000CC060E384058697A829CAEBF627904F121
:1031C00014013846FFF778FE02209DE06179384609
:1031D000FFF7E9F8012803D003281CD000F0B4B8A9
:1031E000207D618B00F0800069B1594A41F288313D
:1031F000802811800CBF0320052020773846FFF778
:10320000C8F82082A0E0524A32218028118014BFE1
:1032100007200920F1E70B2020770520A07493E018
:103220002379227B3846A168FFF7F0FD04206BE08C
:1032300021793846FFF7B7F8012804BF0920207725
:1032400003D0042870D0032808D03846FFF7A1F82F
:10325000218A401A3E490988884275D90B2053E0DB
:10326000607907EB401090F8C51281F0010180F8F9
:10327000C5126379227B3846A168FFF700FE06205D
:1032800042E061793846FFF78EF8012808BF072031
:103290003AD0042848D0022808BF052034D003289B
:1032A000DCD051E00022237911463846FFF7AEFD0D
:1032B000082029E021793846FFF775F805460128EE
:1032C00032D0032DCAD03846FFF763F8218A401A5E
:1032D0001F4909888842C1D8042D35D160782070F3
:1032E0000420A07403262FE06079002207EB401031
:1032F00090F8C51281F0010180F8C512637911467A
:103300003846FFF7BCFD0A2020771DE0617938467A
:10331000FFF749F8012807D0022808BF0920F3D099
:1033200003289BD010E0FFE7607820700CE0A07BC2
:10333000401CC0B2A073022898BF0120E4D9082025
:10334000A0746078207002263046BDE8F08100004D
:10335000A00000202DE9F0471F4614468946064686
:10336000DDF8208001F086FA002001F033FA002514
:1033700025706570A5700120E07020774021A17153
:1033800084F8205084F8210021793046FFF7BBFDF6
:1033900061793046FFF7B7FDC4E91F780948C6F8E0
:1033A000AC0449460572D6F8AC0445723046FFF7C6
:1033B00003F8D4F88000006880473046BDE8F04745
:1033C00001F044BAA40000200149002008707047B1
:1033D00024E600202DE9F0410D4606460124FFF7C2
:1033E00016F8002800F0EF80784800780B2880F06D
:1033F000EA80DFE800F0060E2B6A829BB4D3D85B2C
:10340000E700304600F034FA70490120087000F0FF
:10341000DAB821222A75FF226A750022EA822A83FD
:10342000304629466A831346FFF700FD040003D0A7
:10343000032C06D000F0C7B864490220087000F0E1
:10344000C2B862480221417009213CE0A1222A75DC
:10345000FE226A750022EA822A834FF001085C4F3F
:1034600030462946A5F81A80434607F10802FFF7BF
:10347000DDFC040002D0032C12D0A4E0387A87F8D7
:10348000480010B15348417819B1504903200870E1
:1034900099E080F80180D5F88000006C804792E0C8
:1034A0004A4803214170092101708CE06B790022A8
:1034B00029463046FFF783FC04003FD1444981F898
:1034C00048004248417801707DE0304600F0E2FB60
:1034D00020B1012809D002285CD074E03B490420C7
:1034E00008703C490020087045E03A490878401CC3
:1034F000C0B208700A2847D34CE0304600F00EFBFB
:1035000020B101280AD0022844D05CE02F490520D0
:103510000870304900200446087054E02D490878AE
:10352000401CC0B208700A282ED333E0304600F0A9
:103530002BFA20B101280AD002282BD043E02349DE
:103540000820087023490020044608703BE0214908
:103550000878401CC0B208700A2815D31AE030461B
:1035600000F03AFB20B1012807D0022812D02AE04F
:10357000164841780170002425E016490878401C5F
:10358000C0B208700A2805D2104806210170012136
:10359000C17018E00D490A20087014E02946304631
:1035A00000F01AF80FE0D5F88000C06B804710F0EB
:1035B000FF0003D0012808BF062404E003490820C7
:1035C000087000E004242046BDE8F08124E60020D5
:1035D00034E60020C00000202DE9F05F89468046D7
:1035E000FEF715FF002808BFBDE8F09F9A4C05279D
:1035F0000026217999489A4D4FF0080B4FF0020AA6
:10360000092928BFBDE8F09FDFE801F00F05113759
:1036100067AABFF6F40043781F2292494046FFF79D
:10362000B9FB0120607184F804A0BDE8F09F4178E7
:103630004046FEF7B8FE01280BD002281BD0042814
:1036400018BFBDE8F09F0120287084F804B0BDE8E1
:10365000F09F8448EE6084F805A0017B806801F04B
:10366000800100286ED06860A068A86080290CBF27
:103670000320042086E0607984E08146017840469A
:10368000FEF791FE012802D0617903291DD00320A5
:10369000EE606071686840280ED999F800304022C9
:1036A0004046A968FFF762FB686840386860A86810
:1036B0004030A860BDE8F09FC0B382B299F80030F6
:1036C0004046A968FFF752FB39E0042818BFBDE85F
:1036D000F09F2E700720207110E08146417840460F
:1036E000FEF761FE01280CD002282ED0042818BF56
:1036F000BDE8F09F0120287084F804B06771BDE830
:10370000F09F0420EE606071686840280FD999F836
:10371000013040224046A968FFF73CFBA8684030D2
:10372000A860686840386860BDE8F09F0AE048B16A
:1037300082B299F801304046A968FFF72BFB6E6012
:10374000BDE8F09F2771BDE8F09FA86899F80130A7
:10375000A0F140014046BDE8F05F4022FFF71ABBF0
:10376000677141493F22A160A2810D228E54521EF1
:1037700012F0FF02FAD10E7003783F224046FFF7A5
:10378000F5FA06202071BDE8F09F81460178404699
:10379000FEF709FE012806D0042804BF2E7007207A
:1037A000F0D0BDE8F09FEE606771A0782070012531
:1037B0004046FEF72CFED0B199F800104046FEF7C7
:1037C000F6FD0D2812D12848284A016891420DD1F2
:1037D000A0F12001426849688A4208D1007B002894
:1037E0000CBF0025012802D0022800D10225E57374
:1037F000BDE8F09F19E0FFE70378C27849464046EC
:10380000FFF7DDFAE968491CE96004291FD818B1FF
:1038100004281CD0BDE8F09F2878022808BF84F84F
:1038200004B07FF428AFBDE8F09F43788278494622
:103830004046FFF7C4FAE968491CE960042906D844
:1038400000283FF418AF042818BFBDE8F09F84F8A3
:103850000FA0BDE8F09F000024E6002034E6002021
:10386000B0000020F4E5002014E600205553425338
:1038700010B5FEF7CCFD002140B10848064A0260B1
:10388000074A4260074A41730120D0700648C16070
:103890000648017010BD000055534243F4E5002076
:1038A0005040302024E60020B0000020C00000205E
:1038B00070B50C4C06460025617831B101F0CAF9AB
:1038C00061783046FFF71FFB65702178002908BF3B
:1038D00070BD304601F0BEF921783046FFF713FB8A
:1038E000257070BD34E60020F0B5064691F843001F
:1038F00083B00C46082804BF94F84500502806D031
:10390000D1F88000006C804703B00020F0BD94F82F
:1039100052101C4D11F0800F14BFE970A970B4F85B
:10392000540014BFA880E88094F85A1011F0800F5A
:1039300014BFE970A970B4F85C0014BFA880E880D7
:10394000A9783046FFF7F4F96870E9783046FFF758
:10395000EFF92870E8880227CDE9007094F821304B
:1039600094F820206978304600F0E0FBA888CDE983
:10397000007094F8213094F820202978304600F027
:10398000D5FBC1E734E6002070B50324FEF73FFD08
:1039900000283DD0DFF894C0254900229CF80300A0
:1039A0000125012802D0022824D031E021483F24FB
:1039B0008023846003730A238373CCF808100521E5
:1039C0008CF8021010214318491EDA7311F0FF0120
:1039D000F9D11A21C1734474C4748CF804500720BF
:1039E0008CF8000003208CF80F0002208CF80300F4
:1039F00003240DE09CF80F0060B1012804BF8CF88F
:103A00000350012404D0022804BF8CF80350022480
:103A1000204670BD887810F0800F074814BF0573EA
:103A200002738CF803500024F2E7000024E6002023
:103A300090E60020F4E5002080E600202DE9FF4F0D
:103A4000334E81B04FF0030886F800809A46154641
:103A50000C460198FEF7DBFC002854D02D4A0127C4
:103A60004FF0020BD0784FF00009012802D0022855
:103A70002DD048E028488021C0F808A001730A2111
:103A80008173102194604318491E83F80F9011F040
:103A9000FF01F8D12821C173290E4174290C8174CA
:103AA000290AC17405754FEA5A21ADF800109DF836
:103AB000011081759DF80010C175177107201070F5
:103AC00082F80F8082F803B086F800801BE0D07B7C
:103AD000144640B90198FEF79AFC00281CBFE77015
:103AE00086F800900FD1E07B012806D10198FEF7FF
:103AF0008EFC002818BFE77005D1E07B022804BFC8
:103B0000E77086F800B0307805B0BDE8F08F0000AF
:103B1000D400002024E60020F4E5002070B5032442
:103B2000FEF775FC00284CD0DFF89CC00125274922
:103B30009CF80300012802D0022823D041E0244849
:103B400008228260802202730A228273CCF8081055
:103B500004218CF80210102100224318491EDA7348
:103B600011F0FF01F9D12521C1738CF80450072011
:103B70008CF8000003208CF80F0002208CF8030062
:103B800003241EE09CF80F0058B1012804BF8CF8F4
:103B90000350012415D0022804BF8CF803500224DE
:103BA0000FE00C480A780024C2704A7882708A7844
:103BB0004270CA7802708A794272C97901728CF8AF
:103BC0000350204670BD000024E6002090E600204F
:103BD000F4E5002080E6002070B50324FEF717FC12
:103BE00000284DD0DFF89CC0012527499CF8030030
:103BF000012802D0022828D042E024483F24802215
:103C0000846002730A228273CCF808109CF80210B8
:103C10008CF8011006218CF80210102100224318A4
:103C2000491EDA7311F0FF01F9D10321C173027447
:103C3000C4748CF8045007208CF800008CF80F1026
:103C400002208CF803000C461AE09CF80F0058B1D3
:103C5000012804BF8CF80350012411D0022804BFAE
:103C60008CF8035002240BE009480A780024C27142
:103C70004A7882718A784271C97801718CF8035050
:103C8000204670BD24E6002090E60020F4E50020E8
:103C900080E6002070B50324FEF7B9FB00283FD072
:103CA000DFF880C001259CF80300012802D002281B
:103CB00023D035E01C480021062281600173827305
:103CC0001A4ACCF808203F22ACF80C2003248CF8C8
:103CD000024010228318521ED97312F0FF02F9D14C
:103CE000C1738CF8045007208CF800008CF80F404A
:103CF00002208CF80300032412E09CF80F00002837
:103D000004BF8CF8035000240AD0012804BF8CF8AB
:103D10000350012404D0022804BF8CF8035002246D
:103D2000204670BD24E60020F4E5002014E60020C3
:103D3000F8B51E4614460F460325FEF768FB00281B
:103D400043D0234B4FF0010CD878012802D0022831
:103D50002AD03AE01F4800220A218660027381734C
:103D600010219F604518491EEA7311F0FF01F9D137
:103D70002A21C173210E4174210C8174210AC1745E
:103D80000475710AADF800109DF8011081759DF859
:103D90000010C17583F804C0072018700320D87381
:103DA0000220D870032510E0D87B002804BF83F8D8
:103DB00003C0002509D0012808BF83F803C004D040
:103DC000022804BF83F803C002252846F8BD00007E
:103DD00024E60020F4E5002010B500EB411C039C14
:103DE000002A18BF8CF8AC22BCF8B222A2421CBF39
:103DF000002CACF8B2429CF8AF229A421CBF002BB8
:103E00008CF8AF3200F046FF002010BD2DE9F84FCE
:103E100000250446AB4601F063F8002800F08181DC
:103E2000204601F064F8061E08BFBDE8F88F16F0C2
:103E3000080F03D0E16808204861012516F0100F33
:103E400065D08DF800B0E068816921F010018161D2
:103E5000E068076A07F00F008DF800009DF8000089
:103E600004EB8000D0F89000D0F80080C7F3434006
:103E7000022845D147F6F070074241D09DF8001066
:103E800004EB4110D0F8B802D0B39DF80010C7F38E
:103E90000A1904EB41104A46D0F8B812204601F046
:103EA0002EF807F00F0104EB4110D0F8B812494486
:103EB000C0F8B812D0F8C0124944C0F8C0129DF83A
:103EC00000109DF8002004EB4110D0F8C00204EB74
:103ED0008201C1F850029DF8001004EB8100D0F877
:103EE00090000069904908420AD028F080409DF86F
:103EF000002040F0004004EB8201D1F890100860EF
:103F0000E068816941F01001816145F0010516F01A
:103F1000200F4FF6FF7840D0E068C06AC0F34171CF
:103F200004EB4111D1F8BC12C91CC1F38F0A27E080
:103F300008EA8009494506D2E0681FFA81F98169DB
:103F400021F020018161D7F8BC024B46C01CC0F3B0
:103F50008F0A2046D7F8B81201F0C6FAD7F8B8028F
:103F60004844C7F8B802D7F8BC02A0EB0900C7F86C
:103F7000BC02D7F8C0024844C7F8C002E068C06A73
:103F800081B2514507D9C0F3417204EB4217D7F80B
:103F9000BC120029CCD145F0010516F0806F40D04D
:103FA00060690069C0F3417104EB4111D1F8BC12A2
:103FB000C91CC1F38F0A27E008EA8009494506D2E7
:103FC000E0681FFA81F9816921F080618161D7F889
:103FD000BC024B46C01CC0F38F0A2046D7F8B8126B
:103FE00001F082FAD7F8B8024844C7F8B802D7F807
:103FF000BC02A0EB0900C7F8BC02D7F8C0024844D5
:10400000C7F8C0026069006981B2514507D9C0F3A1
:10401000417204EB4217D7F8BC120029CCD145F00D
:10402000010516F0007F03D0204601F040F805435B
:1040300016F0807F56D0D4F8CC1000208146D1F8FD
:104040000080096818F0020F21F02E0708D0D4F87C
:10405000AC04416820468847012047F002078146AA
:1040600018F0080F1CBF47F0080718F0040F28D0FD
:104070000121C4F81012C8F34143022B18BF012BD1
:104080001ED162691168022B0CD04BF6803353604D
:1040900001F00301012914D00121204600F01AFF8C
:1040A00001200EE041F27073536001F00301022918
:1040B00007D0E07A012803D10221204600F00AFF50
:1040C000012018F0200F1CBF47F0200749F001091C
:1040D00000281CBF204600F02DFFD4F8CC0007605C
:1040E00049EA050516F0005F0CD0C4F810B2D4F808
:1040F000AC04016820468847E1684FF000504861F1
:1041000045F0010516F4001F0BD0D4F890000168AB
:1041100041F040410160E1684FF40010486145F012
:1041200001052846BDE8F88F0000F81F2DE9F04191
:1041300000EB4104DDE9065694F88CC40CF07F07CF
:1041400000EB411C8CF8AD7294F88C44C4F3C0149D
:104150008CF8AE428CF8AC228CF8B152ACF8B2625A
:1041600000228CF8AF328CF8C4228CF8C522002BC8
:1041700004BF01228CF8B02200F08CFD0020BDE8C5
:10418000F081000070B592B0054602200C468DF813
:10419000000008780D2880F0B481DFE800F00E07F9
:1041A0001BFCFCFC5FFBFAF9F8FCF7002846FEF765
:1041B00031F9002840F0A58109E02846FEF727F9EB
:1041C000002800F09E812846FEF78BFE022020701A
:1041D00000F097B9D4F8800080688047D5F8AC0427
:1041E00000264672D5F8AC14012088723146284664
:1041F000FEF79EFD607180212846FEF799FD207133
:104200002846FEF707F9002840F07B81D4F88000AB
:10421000C06880472846FEF7C0F8C0B284F8210085
:1042200006212170D4F8801089698847A079CDE9EA
:10423000006094F8213094F8202021792846FFF777
:1042400075FFA079CDE9006094F8213094F8202022
:1042500061792846FFF76AFF00F053B9A0780A2871
:1042600080F04F81DFE800F0052A3A606B7F9FBA4B
:10427000D4DF082221462846FEF7F0FE002840F051
:10428000408194F82910A1712846FEF7C3F8012156
:10429000A1700026A0793346CDE9006061793246ED
:1042A0002846FFF799FDA0790023CDE90060217928
:1042B0001A462846FFF790FD00F023B91222214646
:1042C0002846FEF7CBFE002840F01B81D4F8800082
:1042D000C16904F12200884702217DE001222146C4
:1042E000284600F047F9002840F00B81012184F8AE
:1042F0002010D4F88000006A804703210026A170B6
:104300000096019694F82020217933462846FFF73D
:1043100063FD0096019694F82020617900232846D9
:10432000FFF75AFD00F0EDB8092221462846FEF7B6
:10433000F6FD002808BF042140F0E3804CE0E28E47
:1043400021462846FEF7EBFD002840F0DA80D4F83D
:10435000800004F1500204F13E01436A04F134008C
:104360009847052138E094F83020AAB1FF2000904A
:1043700002AB21462846FEF7CDFE00280BD1D4F82B
:104380008000816A02A88847062125E09AE050E073
:1043900093E075E05DE072E0D4F88000816A74A07B
:1043A0008847062118E094F831207AB1FF20009068
:1043B00002AB21462846FEF7ADFE00285FD1D4F8B7
:1043C0008000C16A02A88847072105E0D4F8800070
:1043D000C16A67A088470721A17092E094F8322053
:1043E0007AB1FF20009002AB21462846FEF792FEEC
:1043F000002844D1D4F88000016B02A88847082126
:10440000EAE7D4F88000016B59A088470821E3E768
:1044100094F839202146284600F0B8F8002808BF53
:1044200009216ED1D8E7D4F88000406B80470A207C
:10443000CDE6D4F88000806B8047012861D1E06F21
:104440002146026828469047002808BF072058D117
:10445000BDE6E06F21468268284690478DF800004F
:104460009DF80000002808BF08203FF4B0AE9DF87A
:104470000000052818BF042812D0062816D040E0F6
:10448000E06F2146C268284690478DF800009DF8ED
:104490000000052818BF042802D0062806D030E006
:1044A000D4F88000406C80470C2090E60C202070EF
:1044B000D4F880000068804723E021462846FEF7B4
:1044C0006BFE1EE0002121706170A1700120E07080
:1044D00020774022A27184F8201084F821002179ED
:1044E0002846FEF710FD61792846FEF70CFDD4F84A
:1044F000800040688047E06F04F120014268284650
:1045000090472846FDF783FF00281CBF12B070BDFE
:10451000D5F8AC04C07A00281CBF12B070BDD4F826
:10452000800000698047D5F8AC0401210022C172E7
:1045300022706270A270E17021774020A07184F82F
:10454000202084F8211021792846FEF7DCFC6179CF
:104550002846FEF7D8FCD4F8800040688047E06F1A
:1045600004F12001426812B02846BDE870401047AF
:104570004E2F410000230B754FF0050C81F815C03C
:10458000CA820B834B831A46FEF750BC00230B757F
:104590004FF0090C81F815C0CA820B834B831A4671
:1045A000FEF744BC704700000149002008707047C6
:1045B0002001002070470000014901200870704769
:1045C0009C00002001490120087070479C000020D9
:1045D00001490320087070479C000020012814BF87
:1045E0000228704702200149087070479C00002093
:1045F00070477047704700000848017809B10020F3
:104600007047074906220A70064A127B012A04BF36
:1046100004220A7001210170F1E70000200100204E
:104620009C00002080E60020704700000149052022
:10463000087070479C00002070477047704700006A
:1046400001490120087070479C000020012070473C
:1046500070B54A4CADF5167D207800281EBF0020AD
:104660000DF5167D70BDFEF73DFB06287ED10120BD
:1046700020700020FEF7CCFA00287AD1032240A156
:104680006846FEF7DFFA424DA0B9287820F0C00056
:1046900040F0800028703FA16846FEF711FB3FA163
:1046A0006846FEF70DFB3FA16846FEF709FB68462A
:1046B000FEF7A4FA03223DA16846FEF7C3FA0026DE
:1046C00028BB287820F0C00040F0800028703A4CC9
:1046D0008996899839A2302134F910308AA801F0DE
:1046E000C9F88AA96846FEF7EBFA35A16846FEF7D5
:1046F000E7FA8998401C89908C28EADB6846FEF727
:104700007DFA287820F0C00040F040002870032295
:104710002CA16846FEF796FA30BB287820F0C0003E
:1047200040F0800028702A4C8996899823A2302175
:1047300034F910308AA801F09DF88AA96846FEF77E
:10474000BFFA1FA16846FEF7BBFA8998401C899002
:10475000B0F5967FE9DB6846FEF750FA287820F03E
:10476000C00040F040002870002000E001E0FEF7AB
:104770009BFA0DF5167D012070BD000000000020A1
:104780005553425F46696C652E74787400000000D2
:10479000100000204669636B0000000050656E69E0
:1047A00073000000454E4445000000004F757470D2
:1047B00075642E74787400004CBE002025640000DF
:1047C0002C0000004F75747075742E74787400009E
:1047D0000CB8002030B583B001210420FDF70AFF9A
:1047E000032101208DF805108DF8040000240E4DE2
:1047F00000908DF806408DF8074069462846FDF781
:104800006BFD01212846FDF7C2FD094B074A1946F9
:104810000020E2FB0310400802940299491C029117
:104820008142FAD903B030BD0008024000366E0163
:1048300049922449044800294FF0010101D0FDF7B5
:10484000A4BDFDF7A4BD00000008024008B54FF468
:10485000C060FDF7BDFE43208DF8000001208DF8FB
:1048600001008DF802008DF803006846FDF778FE20
:1048700008BD000030B5012183B00846FDF7BAFE3F
:104880004FF4D050032400908DF8054002208DF89D
:10489000040000208DF80600164D8DF807006946CB
:1048A0002846FDF719FD0A2209212846FDF75CFD7F
:1048B0000A220B212846FDF757FD0A220C21284623
:1048C000FDF752FD01218DF8061028158DF807100F
:1048D00000908DF8054069462846FDF7FDFC0A2248
:1048E00011462846FDF740FD01218020FDF78EFE90
:1048F00003B030BD000002404FF47A71484381B0EC
:104900000021C0EB0010074BC200009119460020A7
:10491000E2FB031040080099491C00918142FAD93A
:1049200001B070474992244981B00021C0EB0010CA
:10493000074BC200009119460020E2FB031040081B
:104940000099491C00918142FAD901B070470000DA
:10495000499224492DE9F84304460027017A594D2C
:10496000C068B846012947D0C16841F04001C16024
:104970000026CDF800800320FFF7D6FFE06800692D
:104980000090761CAE4218D8009810F0004FF2D07C
:104990000099002041F0010100910099E268116145
:1049A000E1680A690092401CA84203D8009A12F0FC
:1049B000010FF6D10320FFF7B7FF217A4FF48030C3
:1049C000032908BF4FF4403040F43010617A0029C9
:1049D00018BF40F48010E16888631420FFF78CFF53
:1049E000E168C868227A032A08BF40F48030C860B2
:1049F000207A032858D140E0816B627A21F480311B
:104A0000002A18BF41F480118163E168CA6822F06E
:104A1000C80222F4940242F01002CA600026CDF8C7
:104A200000800320FFF780FFE06800690090761C9B
:104A3000AE4218D8009810F0004FF2D00099002034
:104A400041F0010100910099E2681161E1680A6991
:104A50000092401CA84203D8009A12F0010FF6D130
:104A60000320FFF761FFE078012828D1E16808F111
:104A70000A0040F02000886016E0E068016B21F039
:104A8000406101F1806121F47F0141F0805101F525
:104A900034150563C820FFF72FFFE16845F40000D7
:104AA0000863C820FFF728FFE078012807D1E068F5
:104AB000816821F01E010A3141F0200181603846F1
:104AC000BDE8F883400D0300F8B500273E460446D4
:104AD0003546FFF77FFED4F80C01056061690122BD
:104AE000086862F3010008606069016821F0040150
:104AF0000160E07A012812D1E068802141622846F5
:104B000061F30F00E268602161F31F409062E020D2
:104B100060F30F05E06861F31F45C0F800511021F4
:104B200000200096009A42F020020092009A61F361
:104B30008A1200920099E2681161314DE1680A69B8
:104B40000092401CA84203D8009A12F0200FF6D120
:104B50000320FFF7E9FE00200096009941F01001C4
:104B600000910099E2681161E1680A690092401CB5
:104B7000A84203D8009A12F0100FF6D10320FFF7D5
:104B8000D3FE00202178451E00290BD904EB8001BB
:104B9000D1F890209560D1F89010CE602178401C1B
:104BA0008142F3D801212046FFF744FED4F8CC100F
:104BB000086820F02E0010F4805F04BF40F480509D
:104BC0000860C820FFF798FEE0688661E0684561EC
:104BD000E0684560E0684561E1680A488861E0781E
:104BE000002808BF102646F00800E16840F00C508D
:104BF00040F400108A698243104388613846F8BD4A
:104C0000400D030000080080C0680021826822F087
:104C10000102826008467047C0680021826842F045
:104C2000010282600846704700EB81004FF00042AD
:104C3000D0F890106FF3DC4202F5002200230A61E5
:104C4000D0F89000016821F0804141F000410160FE
:104C50001846704700EB81010022D1F890301968A6
:104C600041F0404111F4402F1CBFC1F3814CBCF115
:104C7000020F05D04069006910F47F0F05D006E0EF
:104C8000C068C06A10F47F0F01D121F000411960A3
:104C900010467047F0B4064606EB81050020D5F8B3
:104CA00090C00446431E2246CCF80830F378012B0E
:104CB00008BF042206EB411393F8B1C2BCF1000F08
:104CC00009D0BCF1010F23D0BCF1020F03D0BCF11D
:104CD000030F13D026E042F0890C4CF4826293F863
:104CE000AEC2BCF1000F10D193F8B0C242F0400246
:104CF000BCF1000F18BF42F0200213E042F0990C03
:104D000093F8AE724CF4C06267B142F4807209E06D
:104D100093F8AE7242F0010242F40872002F18BFFD
:104D200042F4C072D5F890C0CCF80C20012202FAEF
:104D300001F17269D2F818C04CEA01019161F16881
:104D40008A6942F000728A6193F8AC1261F39C5454
:104D500093F8AD1261F3CE2493F8AE1261F3CF3421
:104D600093F8AF1202290CBF44F4003124F400314F
:104D700093F8B122B3F8B23262F3934163F30A01BC
:104D8000032A08BF41F00051D5F890201160F0BC13
:104D90007047000070B400EB41120024D2F8BC321E
:104DA0004FF480762546002B08BF01230ED0B2F8C1
:104DB000B2C263445B1EB3FBFCF39BB2B3F5807FCE
:104DC00004D94FEA0C2C3346C2F8BCC292F8AEC2EA
:104DD000BCF1000F1DBFB2F8B2C20CFB03FCC2F85D
:104DE000BCC2D2F8BCC26CF3120500EB810C63F3B9
:104DF000DC4592F8B432DCF8901063F35E750D6117
:104E0000C178012904D1DCF89030D2F8B812596188
:104E1000DCF8903019684569AD68012626EA050579
:104E200065F35D7121F0804141F000411960C17866
:104E3000002904BF92F8AE12002948D1D2F8BC3242
:104E4000002B44D092F8B11231B1012911D00229BE
:104E500002D003290DD019E0C168CD6ADB1CC3F371
:104E60008F03ADB29D423CBF8B6943F020030DD24E
:104E70000BE041690D69D91CC1F38F01ABB28B42C4
:104E800004D2C1688B6943F080638B61D2F8B81299
:104E9000B2F8BC22C07892B2C8B9D01CDCF8D020DD
:104EA000830814D013F0010003D051F804CBC2F8EA
:104EB00000C098420BD200BF51F804CBC2F800C02A
:104EC00051F804CBC2F800C0801C9842F4D32046AD
:104ED00070BC70474269106861F301001060704750
:104EE000C068406910F0010018BF01207047C06819
:104EF0004169806908407047406940697047D21C29
:104F0000D0F8D030920813D012F0010003D0D3F8BB
:104F100000C041F804CB90420AD2D3F800C041F857
:104F200004CBD3F800C0801C41F804CB9042F4D3EA
:104F30000846704770B5D0F8CC100446086820F0D9
:104F40002E0040F480750D600A20FFF7D5FCD4F8E0
:104F5000CC1025F4807008601420FFF7CDFC0120F0
:104F600070BD000070B40022C2704FF0010C4024EC
:104F700080F802C0154613468480012901D069B12A
:104F800015E080F80BC00821017004214FF0A04209
:104F900041709115C1800221017208E0C3720C2199
:104FA000017006214170364A4FF4A061C18002F5BC
:104FB0000061C0E903214378002B18BF00210DD008
:104FC00002EB411C00EB81040CF510660CF5306C13
:104FD000491CC4F854C0A6615B1EF1D102F5806182
:104FE00041614031C0F8CC1090F800C0BCF1000F16
:104FF0003ED000231CF0010104D002F5A063C0F8EC
:10500000903001238C4519D902EB431C00EB83043B
:105010000CF5A06C5B1CC4F890C002EB431C00EBC9
:1050200083040CF5A06CC4F890C090F800C0891CF3
:105030005B1C8C45E8D81CF0FF0F19D00CF0FF0367
:1050400013F001011CBF02F5805CC0F8D0C08B4298
:105050000ED900BF02EB013303F5805400EB810C45
:1050600003F50053CCE934430378891C8B42F1D813
:1050700002F56061C0F80C11284670BC7047000052
:105080000000044010B5C0680024C268012922F065
:10509000C04208BF42F0005203D0002908BF42F0CE
:1050A0008042C2603220FFF727FC204610BD2DE968
:1050B000F04F002583B00746A946FFF71DFF824643
:1050C0003878002888BF4FF0010840F2088208FABB
:1050D00005F080B21AEA000F00F0FC8107EB8506AC
:1050E000D6F890402068A16810F4004FE06800F006
:1050F000168101EA000B206801901BF0040F00905C
:1051000008D00420A060D6F89000C16841F00201E8
:10511000C1602DE01BF0200F18BF202027D11BF00D
:10512000080F12D0E06840F00200E0600520791915
:1051300081F88C021020A0600820A0602BF0100BDA
:10514000E9B23846FFF786FD12E01BF4806F0FD0FE
:10515000E06840F00200E060E9B23846FFF77AFD0F
:105160001020A0600822781980F88C22D001A0605D
:105170001BF4007F0ED0D6F89000C16841F0020108
:10518000C160E9B23846FFF765FD4FF40070A060DA
:1051900000F09EB91BF0010F44D0F87801280BD124
:1051A000D6F89000006907EB4511C0F31200D1F862
:1051B000BC12081AC6F850027A19414682F88C824D
:1051C0000020C6F81402C4F80880019810F4402F9B
:1051D00008D00098C0F38140022803D0032817D0DC
:1051E00000F076B9D6F89000C16841F00201C160C4
:1051F000E9B23846FFF72EFD1020A06007EB4510FE
:1052000090F8C41281F0010180F8C41200F060B976
:105210000098D6F8903040F00050186082F89B1249
:1052200000F056B91BF0020F35D0D6F89000C168D7
:1052300021F00201C160781990F88C12012908BF91
:1052400080F89B8200F0428190F88C12052908BFFB
:10525000042112D090F88C1206291CBF90F88C12F1
:10526000082906D00098C0F38140032809D000F037
:105270002DB90021C6F81412032180F89B1200F00A
:1052800025B907EB451090F8C41281F0010180F8B0
:10529000C41200F01BB91BF0800F16D0D6F8900096
:1052A000C16841F00201C160D6F81402401CC6F882
:1052B00014020620791981F88C02E9B23846FFF70A
:1052C000C9FC8CE0A06000F003B91BF0100F00F0E7
:1052D000FF800098C0F38140032806D0009911F4A4
:1052E000402F18BF02280DD014E0D6F89000C168F6
:1052F00041F00201C160E9B23846FFF7ABFC102073
:10530000A06007E00098D6F8901020F0804040F0B0
:10531000004008600320791981F88C02D8E0084029
:10532000216810F0040F08D00420A060D6F8901077
:10533000C86840F00200C860CAE010F0200F18BF33
:105340002020BFD110F0010F10D00020C6F81402A9
:10535000E16841F00201E160E9B23846FFF77AFC0A
:10536000C4F80880791981F88C82B1E010F0080F38
:1053700010D00820A060D6F89000C16841F002016A
:10538000C160E9B23846FFF765FC0520791981F85C
:105390008C029DE010F0100F0DD00020C6F8140212
:1053A000E16841F00201E160E9B23846FFF752FCE2
:1053B0001020A060AEE710F0800F12D0E06840F03F
:1053C0000200E060E9B23846FFF744FCD6F8140268
:1053D000401CC6F814020620791981F88C0280203E
:1053E00070E710F0400F11D00020C6F81402E168F9
:1053F00041F00201E160E9B23846FFF72BFC4020A2
:10540000A0600420791981F88C0261E010F4806FAB
:105410000FD0E06840F00200E060E9B23846FFF7E4
:1054200019FC1020A0600820791981F88C02C001B5
:1054300048E710F0020F4BD0E06820F00200E06077
:1054400007EB050B2A469BF88C0201281AD09BF823
:105450008C02032804BF02208BF89B0236D09BF8F5
:105460008C0204281DD09BF88C02052808BF04205C
:1054700023D09BF88C02062804BFD6F81402032818
:105480001ED023E08BF89B82C1F3814002281DD1FE
:1054900007EB451090F8C51281F0010180F8C512A4
:1054A00014E007EB4510114690F8B002012803D133
:1054B000C9B23846FFF7B8FB02208BF89B0205E023
:1054C00003208BF89B020020C6F814020220F9E6A4
:1054D00049F0010938786D1CA8423FF6F8AD03B0D9
:1054E0004846BDE8F08F000010B4844600209CF8C8
:1054F0000340002C1CBF10BC7047DB1C0CEB82026D
:105500009B08D2F8D0C004BF10BC704713F0010252
:1055100003D051F8044BCCF800409A4224BF10BC91
:10552000704700BF51F8044BCCF8004051F8044BD1
:10553000CCF80040921C9A42F4D310BC7047000093
:1055400010B54FF0FF340548FCF761FF20B1044867
:105550000078062808BF0024204610BDC0E00020C7
:105560009C00002003004FF0000008BF7047012B93
:1055700009D04FF40072022B04BF0A807047032B3E
:1055800008BF0A607047024A12680A60704700004C
:1055900080E600202DE9F041074614460E461248E9
:1055A000FCF735FFD8B111480078062808BF65021E
:1055B00015D12B46324639460B48FEF73FFA0446D2
:1055C0000B490948FEF708F80748FCF720FF30B1FF
:1055D000032CEED0002C04BF0020BDE8F0814FF07A
:1055E000FF30BDE8F0810000C0E000209C000020FA
:1055F00070E5002010B54FF0FF340548FCF707FFB9
:1056000020B104480078062808BF0024204610BDB9
:10561000C0E000209C0000202DE9F0410746144620
:105620000E461248FCF7F3FED8B111480078062860
:1056300008BF650215D12B46324639460B48FEF7A6
:1056400077FB04460B490948FDF7C6FF0748FCF7FE
:10565000DEFE30B1032CEED0002C04BF0020BDE8EC
:10566000F0814FF0FF30BDE8F0810000C0E0002085
:105670009C00002070E50020FEE7000010B501222C
:1056800010214FF4FA4000F05BF80B48094A102152
:105690000368002B08BF10BD4261C160074C0122A6
:1056A00060212046FDF7DCF82046BDE810400121CE
:1056B000FCF7C0BEB0DD0020200000200038004014
:1056C0002DE9F04100241C4D2246002912DD47F649
:1056D000BC7C1A4ECCF1000730F9023B6345B4BFE5
:1056E0009F420124B5F802809044521C26F81830DD
:1056F0008A42F1DB68880844B0F5C06FAEBF002075
:10570000688808446880A86868B1401EA86004BF23
:105710000220FDF7DDF8002C08BFBDE8F081322043
:10572000A860BDE8F081002C08BFBDE8F081022030
:10573000FDF7DAF8F3E70000140000207CD1002028
:105740002DE9F047434D84B0174628688846002865
:105750001EBF002004B0BDE8F0873F48016841F457
:10576000805101603E489FED3D0A4FF47A5180ED33
:10577000010A9FED3C0A012480ED020A0180C481E8
:105780008481FAF71DFD01210620FCF733FF01217A
:105790000620FCF72FFF02208DF8040000268DF86C
:1057A00006608DF807608DF805004002DFF8B890BC
:1057B000009069464846FCF78FFD05220A214846BD
:1057C000FCF7D2FDDFF8A4A04FF008096946504667
:1057D000CDF80090FCF780FD052203215046FCF730
:1057E000C3FDA002FCF7F4FE24208DF800008DF824
:1057F00001408DF802608DF803406846FCF7B0FE6A
:1058000001218803FCF70EFFDFF864A05046FCF787
:10581000DBFF4FF4FA4002902020ADF802004FF475
:105820004070ADF80460ADF80000ADF80C90ADF834
:10583000066069465046FCF707FE0122602150468B
:10584000FDF70EF8AF60C5E9004804B00020BDE8E0
:10585000F087000020000020303802400000FA45A8
:105860007CDD00200000000000040240000802402F
:10587000003800400FB41CB50A46521ECDE90002A4
:1058800007A9054B6A46069800F018F8009A00210F
:1058900011701CBC5DF814FB115A000802E008C826
:1058A000121F08C1002AFAD170477047002001E09A
:1058B00001C1121F002AFBD1704700002DE9FF4FE4
:1058C00089B09B460446002506E025280BD05A46A1
:1058D0000B999047641C6D1C20780028F5D10DB001
:1058E0002846BDE8F08F0027B8460122474900E06E
:1058F000074314F8013F203B02FA03F00842F7D1B6
:1059000020782E2819D114F8010F47F004072A280F
:105910000ED06FF02F022078A0F1300109290CD8A9
:1059200008EB880102EB410100EB0108641CF2E77F
:105930000A98641C50F8048B0A9020780028CED076
:10594000642808D0692806D075281ED05A460B99BD
:1059500090476D1C58E00A994FF00A0901C90A9155
:10596000002802DA40422D2102E0390504D52B211E
:105970008DF82010012103E0F90704D02021F7E77A
:105980008A4608AE0DE00021FAE70A994FF00A09AD
:1059900001C90A91F7E74946FCF7C8F9303106F822
:1059A000011D0028F7D1ADEB060000F120097807B2
:1059B00001D44FF00108C84502DDA8EB090000E062
:1059C00000208046002706E008A85A46C05D0B99D3
:1059D00090476D1C7F1C5745F6DB04E030205A468B
:1059E0000B9990476D1CB8F10001A8F10108F5DC96
:1059F00005E016F8010B5A460B9990476D1CB9F15A
:105A00000001A9F10109F4DC641C65E70928010023
:105A10004A68002A06D00A68531C0B601070486858
:105A2000401E4860704700002DE9F04715460268A7
:105A300000271378303B092B9CBF92F801C0BCF1C2
:105A40003A0F18BF0F6007D1921C02600F60002B45
:105A50001CBF0B20BDE8F0879A480468002C04BFE7
:105A60000C20BDE8F0870C60207828B1607800F049
:105A700025FB10F0010F12D027703846677000F038
:105A8000C8FA10F0010F1CBF0320BDE8F087002DFD
:105A900018BF10F0040F0AD00A20BDE8F087002DCF
:105AA00014BF10F0040F0020F6D1BDE8F0870022EB
:105AB00015466078012304F1340100F0DDFA68BB7B
:105AC000B4F832024AF6552840457CD194F86A1061
:105AD000B4F86B007C4E41EA002020F07F40B042D9
