:020000040800F2
:10000000C02400209D010008571700084117000870
:1000100055170008FD130008FD1C00080000000033
:10002000000000000000000000000000C11A0008ED
:100030001915000800000000C9170008F11A00088F
:10004000B7010008B7010008B7010008B7010008B0
:10005000B7010008B701000851150008D5150008C0
:10006000B7010008B7010008B7010008151400081F
:10007000B7010008B7010008B7010008B701000880
:10008000B7010008B7010008B7010008B701000870
:10009000B7010008B7010008B7010008B701000860
:1000A000B7010008B7010008B7010008B701000850
:1000B000B7010008B7010008B7010008B701000840
:1000C000B7010008B7010008B7010008B701000830
:1000D000A5180008B7010008B7010008B70100081B
:1000E000B7010008B7010008B7010008B701000810
:1000F000B7010008B7010008B7010008191400088B
:10010000B7010008B7010008B7010008011900088D
:10011000B7010008B7010008B7010008B7010008DF
:10012000B7010008B7010008B7010008B7010008CF
:10013000B7010008B7010008B7010008B7010008BF
:10014000B7010008B7010008B7010008B7010008AF
:10015000B7010008B7010008B7010008B70100089F
:10016000B7010008B7010008B7010008B70100088F
:10017000B7010008B7010008B7010008B70100087F
:10018000B7010008B7010008DFF80CD001F072F8E1
:1001900000480047A11D0008C024002006488047F1
:1001A00006480047FEE7FEE7FEE7FEE7FEE7FEE75C
:1001B000FEE7FEE7FEE7FEE7D11B00088901000825
:1001C0002DE9F05F0446FF48FD4901600268FE48E2
:1001D000FE490026824232D10860E661A66166616E
:1001E0002661A662666226626068DFF8E4A3DFF833
:1001F000E4B304F11005814610F0FF4F21D02088B0
:1002000000F070FF52465B4600F0FDFE0746884650
:10021000484600F08DFF3A46434600F0DBFD0746B6
:1002200088460821484600F0C9FD00F081FF3A46A3
:10023000434600F0E8FE00F062FFA88302E00E6093
:10024000FEE7AE83A76817F0FF4F1FD0B4F8008019
:10025000404600F047FF06468946384600F068FFF2
:1002600052465B4600F05DFE4B46324600F0B2FD62
:1002700006460F464FEA082000F034FF32463B4660
:1002800000F0C1FE00F03BFFE88300E0EE83208831
:100290004FF47A71B0FBF1F02884BDE8F09F2DE9AE
:1002A000FF4FCA49C84A97B00968914200D0FEE79B
:1002B0001A99103100250A6903924A6908928A69DD
:1002C0000792D1E901620C680592CA6806921A9AEF
:1002D0008B8B92890993CB8B0E9316E10778BE4BDB
:1002E000A3F5807813F807C0B444CDF844C018F8DB
:1002F000076010F802A004EB4606A3F5007413F89B
:100300000AC0E75D0CEB0609CDF82C9010F81290AE
:1003100018F80A6007EB460613F809C014F80A70CB
:100320000CEB060E18F8096002EB420C07EB4606D0
:1003300014F80970CDF84CC010F80C9013F809C0EF
:100340000CEB060B18F8096007EB460614F8097069
:1003500010F8229013F809C0B444CDF848C018F83A
:10036000096002EB820C07EB460614F8097010F8DE
:100370000C9013F809C00CEB060A18F80960DDF8B8
:100380004CC007EB460614F8097010F81C9013F8DF
:1003900009C0B444CDF850C018F8096014F809C079
:1003A00007EB4606C2EBC207DDF82C90C75DDB5DAC
:1003B0003344139318F80730E45D0CEB4306C9EBA4
:1003C000C903DDF844C003EB4307CCEBCC0307EBD8
:1003D0008303CEEB0E1C63440BEB8B0C03EB4C0343
:1003E000DDF848C00CEB4C0803EB48030AEB4A0C61
:1003F0006344DDF850C09C44069B6344DDF844C070
:1004000001930CEBCC039B0003EB4703CEEBCE0731
:1004100007EB0E1703EB47030BEB4B0703EB07133D
:10042000CAEBCA0703EB081307EB0A17DDF850C045
:1004300003EB4703CCEBCC0707EB470803EB48077C
:10044000139BDDF848C003EBC30307EB8307059B51
:100450000CEB8C0C3B4406930BEB4B070EEB4E0363
:100460007F004B4407EB4C073B44CAEB0A173B4465
:1004700003EB0807139BC3EBC30307EB830305934D
:10048000019B0E9FA3F500338FB1039F07EB030C75
:10049000089FACEB0707DDF838C007FB0CF74FEA05
:1004A000E77C07EB1C673F12039708933B46099FC5
:1004B00077B1DDF81CC0C7F5807707FB0CF7DDF8D6
:1004C00024C00CFB0373DF1703EB17631B120793A6
:1004D000199F7B43002B01DD083300E0083BDF1749
:1004E00003EB17733D4F1B11BB4203DB7F42BB4243
:1004F00000DC1F463B461A9FDDF860C000EBC200DF
:10050000FF896F436D1C2CF817300B8CAB423FF703
:10051000E5AEC1E90046059888600698C860039872
:100520000861089848610798886198B21BB0BDE8D7
:10053000F08F2DE9FF4F2549234A97B00968914272
:1005400000D0FEE71A99103100250A6903924A6922
:1005500008928A690792D1E901620C680592CA681B
:1005600006921A9A8B8B92890993CB8B0E9328E172
:100570000778194BA3F5807813F807C0B444CDF879
:1005800044C018F8076010F802A004EB4606A3F573
:10059000007413F80AC0E75D0CEB0609CDF82C9047
:1005A00010F8129018F80A6007EB460613F809C015
:1005B00014F80A700CEB060E18F8096010E0000041
:1005C000C2A507F400300240CDB5E8B59800002080
:1005D0001F85EB51B81E19409C0200204480FFFF8C
:1005E00007EB460614F8097002EB420CCDF84CC03C
:1005F00010F80C9013F809C00CEB060B18F8096002
:1006000007EB460614F8097010F8229013F809C099
:10061000B444CDF848C018F8096002EB820C07EB2F
:10062000460614F8097010F80C9013F809C00CEB8A
:10063000060A18F80960DDF84CC007EB460614F806
:10064000097010F81C9013F809C0B444CDF850C0DC
:1006500018F8096014F809C007EB4606C2EBC20798
:10066000DDF82C90C75DDB5D3344139318F8073039
:10067000E45D0CEB4306C9EBC903DDF844C003EBB2
:100680004307CCEBCC0307EB8303CEEB0E1C634498
:100690000BEB8B0C03EB4C03DDF848C00CEB4C0868
:1006A00003EB48030AEB4A0C6344DDF850C09C445A
:1006B000069B6344DDF844C001930CEBCC039B0024
:1006C00003EB4703CEEBCE0707EB0E1703EB470315
:1006D0000BEB4B0703EB0713CAEBCA0703EB08133B
:1006E00007EB0A17DDF850C003EB4703CCEBCC0750
:1006F00007EB470803EB4807139BDDF848C003EB03
:10070000C30307EB8307059B0CEB8C0C3B44069360
:100710000BEB4B070EEB4E037F004B4407EB4C07F4
:100720003B44CAEB0A173B4403EB0807139BC3EB9C
:10073000C30307EB83030593019B0E9FA3F50033CF
:100740008FB1039F07EB030C089FACEB0707DDF8A5
:1007500038C007FB0CF74FEAE77C07EB1C673F123A
:10076000039708933B46099F77B1DDF81CC0C7F596
:10077000807707FB0CF7DDF824C00CFB0373DF1751
:1007800003EB17631B120793199F7B43002B01DDBB
:10079000083300E0083BDF1703EB1773FE4F1B1114
:1007A000BB4203DB7F42BB4200DC1F463B461A9F35
:1007B000DDF860C000EBC200FF896F436D1C2CF8B0
:1007C00017300B8CAB423FF7D3AEC1E9004605981A
:1007D00088600698C860039808610898486107987F
:1007E000886198B2A2E62DE9FF4FEC49EC4A97B038
:1007F0000968914200D0FEE71A99103100250A6974
:1008000003924A6908928A690792D1E901620C68E9
:100810000592CA6806921A9A8B8B92890993CB8BA0
:100820000E9317E1DD4B07781B1D03F5807813F855
:1008300007C0B444CDF844C018F8076010F802A00F
:1008400004EB460603F5007413F80AC0E75D0CEBF1
:100850000609CDF82C9010F8129018F80A6007EBF2
:10086000460613F809C014F80A700CEB060E18F8C7
:10087000096002EB420C07EB460614F80970CDF84C
:100880004CC010F80C9013F809C00CEB060B18F8CC
:10089000096007EB460614F8097010F8229013F867
:1008A00009C0B444CDF848C018F8096002EB820CC6
:1008B00007EB460614F8097010F80C9013F809C0FD
:1008C0000CEB060A18F80960DDF84CC007EB460689
:1008D00014F8097010F81C9013F809C0B444CDF84E
:1008E00050C018F8096014F809C007EB4606C2EBBF
:1008F000C207DDF82C90C75DDB5D3344139318F815
:100900000730E45D0CEB4306C9EBC903DDF844C0D6
:1009100003EB4307CCEBCC0307EB8303CEEB0E1CBE
:1009200063440BEB8B0C03EB4C03DDF848C00CEB82
:100930004C0803EB48030AEB4A0C6344DDF850C053
:100940009C44069B6344DDF844C001930CEBCC034C
:100950009B0003EB4703CEEBCE0707EB0E1703EB31
:1009600047030BEB4B0703EB0713CAEBCA0703EB79
:10097000081307EB0A17DDF850C003EB4703CCEB75
:10098000CC0707EB470803EB4807139BDDF848C08B
:1009900003EBC30307EB8307059B0CEB8C0C3B4479
:1009A00006930BEB4B070EEB4E037F004B4407EB1C
:1009B0004C073B44CAEB0A173B4403EB0807139B65
:1009C000C3EBC30307EB83030593019B0E9FA3F5C2
:1009D00000338FB1039F07EB030C089FACEB0707B5
:1009E000DDF838C007FB0CF74FEAE77C07EB1C6724
:1009F0003F12039708933B46099F77B1DDF81CC06F
:100A0000C7F5807707FB0CF7DDF824C00CFB0373F8
:100A1000DF1703EB17631B120793199F7B43002B10
:100A200001DD083300E0083BDF1703EB17735A4F73
:100A30001B11BB4203DB7F42BB4200DC1F463B462F
:100A40001A9FDDF860C000EBC200FF896F436D1C88
:100A50002CF817300B8CAB423FF7E4AEC1E90046EF
:100A6000059888600698C8600398086108984861EE
:100A70000798886198B259E52DE9FF4F4749484AE0
:100A800098B00968914200D0FEE71B99103100250B
:100A90000A6902924A6906928A690492D1E901625E
:100AA0000B680592CA6808921B9A94898A8B0992EE
:100AB000CA8B10926BE1394A0778121D02F58078D3
:100AC00012F807C0B444CDF858C018F8076010F801
:100AD00004A003EB460602F5007312F80AC0DF5DBE
:100AE0000CEB0609CDF8289010F8149018F80A605D
:100AF00007EB460612F809C013F80A70B444CDF8A3
:100B00002CC018F8096004EB440A07EB460613F8FA
:100B1000097010F80A9012F809C0B444CDF838C032
:100B200018F8096007EB460613F8097010F82490CE
:100B300012F809C0B444CDF83CC018F8096004EBC1
:100B4000840C07EB460613F80970CDF854C010F872
:100B50000C9012F809C0B444CDF844C018F80960EC
:100B600007EB460613F8097010F81A9012F809C03E
:100B70000CEB060E18F80960C4EBC40C07EB460634
:100B800013F8097010F80C9012F809C00CEB060A63
:100B900018F8096006E000004480FFFF980000207C
:100BA000CDB5E8B507EB460613F8097010F8349098
:100BB00012F809C00CEB060B18F8096013F809C00D
:100BC00007EB460604EBC407DDF82890C75DD25D4D
:100BD000DB5D324418F807600CEB4606DDF858C0C0
:100BE000CCEB0C1707EB470709EBC90C07EB8C079D
:100BF000DDF82CC0CCEBCC0C07EB8C07DDF838C053
:100C0000CCEBCC0C0CEB4C0C6744DDF83CC0CCEBD3
:100C10000C1C6744DDF844C00CEB8C0C07EB4C0754
:100C20000EEB4E0C07EB4C070AEB4A0C674407EB44
:100C30000B0C089F6744DDF858C001970CEBCC07FC
:100C4000C7EB8C17C9EB891C6744DDF82CC00CEB93
:100C50008C0808EB8C1C6744DDF838C00CEBCC0822
:100C600008EB8C1C6744DDF83CC00EEBCE08CCEBE7
:100C70000C1C0CEB8C0C6744DDF844C0CCEB0C1C5A
:100C80000CEB8C0C674408EB8E1C67440AEB8A085B
:100C900008EB8A1C6744CBEB8B1C674402EBC20C4D
:100CA000CCEB821CBC44059FC2EB02126744DDF80A
:100CB0002CC008970CEB4C07DDF838C04F440CEB08
:100CC0004C0C4FEA4C08DDF83CC002EB42020CEB46
:100CD0008C0C08EB4C0C6744DDF844C0CCEB0C1CCE
:100CE0006744CEEBCE0C0CEB4C0C6744CAEBCA0C41
:100CF00007EB8C070BEBCB0C07EB8C073A44059208
:100D0000019F109AA7F57A378AB1029A02EB070C75
:100D1000069AACEB0202DDF840C0069702FB0CF22B
:100D20004FEAE27C02EB1C62121202921746099A09
:100D30007AB1DDF810C0C2F5807202FB0CF2DDF86A
:100D400024C00CFB0722D71702EB176212121746BA
:100D500004921A9A5743002F01DD103700E0103F2C
:100D6000FA1707EBD262144F5211BA4203DB7F42EB
:100D7000BA4200DC17463A461B9FDDF864C0FF8983
:100D80006F436D1C2CF81720159A00EB42000A8C5B
:100D9000AA423FF790AEC1E90036059888600898EE
:100DA000C8600298086106984861049888611CB080
:100DB00090B2BDE8F08F00004480FFFF420005D0F4
:100DC000C0F3C7525242914201DC0020704700EB51
:100DD000C15070472DE9FE4F804681EA0300C00FE5
:100DE0000C46009021F0004123F00045B8EB0200D2
:100DF000A94105D24046214690461C460B46024674
:100E000023F00040104347D0270DC7F30A00C3F377
:100E10000A510290401A019040286BDAC3F3130084
:100E200040F4801B0098924620B10023D2EB030AC5
:100E300063EB0B0B01985946C0F14002504600F09D
:100E40008AF906460D4650465946019A00F0A2F925
:100E500010EB08006141002487EA115284EAE7732D
:100E60001A4340D0009A62B3019A012A4FEA07520E
:100E700015DC001B61EB02014FF0004202EA075251
:100E8000CDE90042001C41F5801132462B4600F0AE
:100E9000A2F903B0BDE8F08F40462146F9E7001BF8
:100EA00061EB0201001C41F5801300185B41201822
:100EB000A2F5001747EB030140EAD570B6196D4162
:100EC00011E06D084FEA360645EAC0754FEA075251
:100ED000001B61EB0201001C41F5801149084FEA3B
:100EE00030000019514132462B4603B0BDE8F04FA7
:100EF00000F062B90098012240000023D0EB02020A
:100F000063EBE073009821464FEAE074B8EB000011
:100F100061EB0401E9E783F000435BE781F0004106
:100F200058E72DE9FE4F81EA030404F0004421F064
:100F3000004100944FF0000B23F0004350EA0104FD
:100F40005ED052EA03045BD0C3F30A54C1F30A55DE
:100F50002C44A4F2F3340194A0FB0254C1F3130116
:100F600041F48011C3F3130343F4801301FB0244E3
:100F700000FB034E840A970A44EA815447EA8357E8
:100F8000A4FB076802958D0A05FB07854FEA932CA1
:100F900004FB0C542705029D4FEA065847EA163712
:100FA000B5EB08056EEB070C870E920E47EA81172A
:100FB00042EA8312A7FB0201B6EB0B0164EB0004CB
:100FC0002B0D43EA0C335E1844EB1C50DA465146B5
:100FD000E7FB0201C5F313044FEA0B3343EA145352
:100FE0004FEA0432019C43EA0603A4F10C04029484
:100FF000009CCDE900B400F0EEF803B0BDE8F08F3E
:1010000000200146F9E72DE9F04D81EA030404F0E0
:10101000004B21F0004514464FF0000A23F0004138
:1010200050EA050220D054EA01021DD0C5F30A5748
:101030000246C5F31303C1F31300C1F30A5640F48B
:10104000801543F48013A7EB0608101BD64608F260
:10105000FD3873EB050002D308F1010801E0921896
:101060005B41B8F1000F03DA00200146BDE8F08DC6
:1010700000204FF48011064684460EE0171B73EBE8
:10108000050705D3121B63EB050306434CEA010C6D
:1010900049084FEA300092185B4150EA0107EDD150
:1010A00052EA030012D082EA040083EA05010843F1
:1010B00005D0101BAB4106D20122002306E000221E
:1010C0004FF0004302E06FF0010253101AEB0600EC
:1010D0004CEB085110EB0A0041EB0B01BDE8F04D61
:1010E00000F06AB80EB540F2334102910021CDE91B
:1010F00000110A460B4600F06EF803B000BDC1F3C4
:101100000A5210B5C1F3130140F2FF3341F48011CC
:101110009A4201DA002010BD40F233439A42A2F213
:10112000334203DC524200F025F810BD904010BD60
:1011300000F0004230F000400AD0C10D01F56071AE
:10114000C0F3160042EA0151C2084007114370473C
:10115000002001467047202A04DB203A00FA02F101
:10116000002070479140C2F1200320FA03F3194395
:1011700090407047202A04DB203A21FA02F0002137
:10118000704721FA02F3D040C2F120029140084397
:1011900019467047202A06DBCB17203A41FA02F0A5
:1011A00043EAE07306E041FA02F3D040C2F12002C4
:1011B000914008431946704710B5141E73F100049E
:1011C00008DA401C41F1000192185B411A4301D139
:1011D00020F0010010BD2DE9F04D92469B4611B163
:1011E000B1FA81F202E0B0FA80F220329046FFF7C5
:1011F000B2FF04460F4640EA0A0041EA0B0153469B
:101200005A46084313D0114653EA010019D0C8F1D9
:1012100040025046FFF7AEFF05460E46504659467F
:101220004246FFF798FF084305D0012004E020461E
:101230003946BDE8F08D0020054346EAE0762C43B0
:1012400037430A986305E40AA0EB08000022FD0A70
:1012500044EA47540A3002D500200146E9E7010577
:1012600010196941DDE9084500196941BDE8F04DF3
:10127000A2E70000064C074D06E0E06840F00103DD
:1012800094E8070098471034AC42F6D3FEF780FF8D
:10129000241E0008441E000870B58C1810F8015B6D
:1012A00015F0070301D110F8013B2A1106D110F8FF
:1012B000012B03E010F8016B01F8016B5B1EF9D103
:1012C0002B0705D40023521E0DD401F8013BFAE789
:1012D00010F8013BCB1A921C03E013F8015B01F8F4
:1012E000015B521EF9D5A142D8D3002070BD000089
:1012F00010B5264CA16AA06900F0B8F8002808BF14
:1013000010BDA068002833D0A06900F0A6F800281E
:10131000FAD1A16AA06900F081F81D48E16B8160F3
:10132000A168B1F5803F28BF4FF6FF7101611849F0
:10133000A06900F0B5F80121A06900F085F8A06867
:10134000B0F5803F34BF01464FF6FF71E26B02EB10
:101350004101E16334BF01464FF6FF71A0EB01008C
:10136000A060A069BDE810404FF0010100F06CB82A
:101370000021A06900F068F8A16AA06900F04EF8A9
:10138000E06BBDE81040002100F0CAB84800002022
:101390008020002010B5154CD4F810C0144A234604
:1013A000BCF1010F9B69906014D011611146184681
:1013B00000F076F80121A06900F046F80D48008899
:1013C00010F4806F18BF10BD0121BDE810400A481D
:1013D00000F0B7B9480810610549184600F060F8F8
:1013E0000121A06900F030F8E8E700004800002083
:1013F000802000201C3C0040003C0040FEE7A0F69E
:10140000F83081B000F1804000F5004000900160AC
:1014100001B07047FFF76CBFFFF76ABF064A904202
:1014200034BF0648064811F0005F064A01EA02018F
:1014300014BFC160816070471064024000600240C8
:10144000006402407D0F7D0F0029016814BF41F048
:10145000010121F001010160704701460020096887
:1014600011F0010F18BF0120704700000246084B21
:1014700000209A4234BF074A074A11F0005F14BFA8
:1014800052681268054B1A400A4218BF0120704783
:101490001064024000600240006402407D0F7D0F36
:1014A00010B402681B4BD1F80CC01A400B6843EA19
:1014B0000C03D1E905C44CEA040C43EA0C03D1F84F
:1014C0001CC043EA0C03D1F820C043EA0C03D1F856
:1014D00024C043EA0C03D1F828C043EA0C03D1F836
:1014E00034C043EA0C03D1F838C043EA0C031A4372
:1014F00002604269D1E90B3C22F0070243EA0C0387
:101500001A4342610A6942604A6882608968C16020
:1015100010BC70473F801CF07047002070470000EF
:1015200010B5084C60784FF4006128B10648FFF709
:1015300031FF0020607010BD0448FFF72BFF012031
:10154000F8E7000010000020AC0B0020AC030020E6
:1015500010B5012000F054F8002831D01B488268F3
:101560000168C83191422BD24168491C416011F099
:10157000010F17490A7810D022F0300242F0200201
:101580000A700A7822F0C00242F040020A700A781B
:1015900022F0030242F002020FE022F0030242F0C6
:1015A00001020A700A7822F0C00242F080020A703A
:1015B0000A7822F0300242F010020A70816801605D
:1015C000BDE81040012000F015B800000000002028
:1015D0000C00002010B5022000F012F8002808BF0F
:1015E00010BD012000F00CFABDE81040022000F010
:1015F00001B800000149086070470000143C014038
:10160000054A00211268054B02401B6803421CBFBB
:10161000002A012108467047003C0140143C01406B
:10162000837921490268002B34D00B6823EA020237
:101630000A60091D0A6803689A430A60017901F18A
:10164000804101F59E310A6803681A430A60174B0E
:1016500019680268914319601A1D1168D0F800C01A
:1016600021EA0C0111604179102908D001F1804173
:1016700001F59E310A6800681043086070471968D8
:10168000D0F800C041EA0C011960116800680843F5
:1016900010607047007900F1804000F59E300168CD
:1016A0009143016070470000003C0140083C01404C
:1016B0002DE9F001002201255FF00306D1F800C0FA
:1016C00005FA02F30CEA030C9C4533D107684FEA94
:1016D000420C06FA0CF4A74307600F79D0F800809B
:1016E00007FA0CF747EA080707600F79012F18BFC0
:1016F000022F14D18768A74387604F79D0F80880FC
:1017000007FA0CF747EA08078760476827EA0303E8
:10171000436043688F799740BFB23B434360C368DF
:10172000A343C360CB7903FA0CF3D0F80CC043EAAF
:101730000C03C360521C102AC0D3BDE8F0017047EF
:10174000FEE70029818B14BF41F4806121F48061A0
:1017500081837047FEE7704710B4C27801780F2488
:101760004FF0010C0AB3174A126801F1E02102F4AC
:10177000E062C2F5E062C2F30722C2F10403D44082
:1017800042789A40837823401A43120181F800245A
:10179000007800F01F010CFA01F14009800000F10F
:1017A000E020C0F8001110BC704701F01F000CFAD7
:1017B00000F04909890001F1E021C1F8800110BC65
:1017C000704700000CED00E070470000044A00295B
:1017D000116814BF084321EA000010607047000040
:1017E00030380240044A0029116814BF084321EA36
:1017F000000010607047000044380240254A30B4B1
:101800001168254B11F00C0106D05C10042908BFAB
:10181000046002D008291ED0036011680F2303EA78
:1018200011111E4B595CD0F800C02CFA01F1416037
:10183000D2F800C0072404EA9C2C13F80CC021FA4B
:101840000CFCC0F808C0126804EA52329A5CD1401D
:10185000C16030BC70471249D1F800C0CCF380554C
:10186000D1F800C0002D0CF03F0C14BFB4FBFCF30A
:10187000B3FBFCF3D1F800C00968CCF3881C03FB70
:101880000CF3C1F30141491C4900B3FBF1F10160C4
:10189000C3E70000083802400024F400880000205C
:1018A0000438024010B5124C6021204600F04FF879
:1018B000002808BF10BD204600F060F80E4C41BA69
:1018C0000C4A206922F81010401C2061402838BFC3
:1018D00010BD0020094B2061642203F154006169AE
:1018E000FEF7DDFC6069BDE81040102100F008BA89
:1018F00000380040002000201C000020AC1F002009
:1019000010B50D4C0221204600F01AF8002808BF3F
:1019100010BD0A480069022805D1FFF7FEFD014607
:101920000420FFF76CFDFFF7F8FD01462046BDE8F7
:10193000104000F025B80000003C004048000020A6
:101940000246002012890A4218BF0120704701F0A8
:101950000F034FF0010C0CFA03F3002209090CFAF3
:1019600001F1B0F804C09BB289B200890CEA010110
:1019700018421CBF00290122104670478089704719
:101980008181704710B504460E4882B0012150F89D
:101990002400FFF71BFF0C48002130F814000090D2
:1019A00001208DF804008DF806108DF80700022044
:1019B0008DF805000548694650F82400FFF778FEC9
:1019C00002B010BD141E00080C1E000838000020D4
:1019D0000349044A31F8101052F82000418370473F
:1019E0000C1E0008380000200349044A31F810108A
:1019F00052F82000018370470C1E000838000020B8
:101A0000044951F820104A69034B33F81000504044
:101A100048617047380000200C1E000870B504466D
:101A200021480E4686B050F824000121FFF7CEFE73
:101A300001218803FFF7D6FE00251C488DF81450BD
:101A40008DF8175030F814000490194804A950F884
:101A50002400FFF72DFE012E1CBF06B070BD1548F7
:101A6000015D401E005D00F02CF8134830F81400B2
:101A700000908DF8045008208DF8050001258DF8A0
:101A800006506846FFF7CCFD0C48005D8DF8080055
:101A90000F208DF809008DF80A008DF80B5002A870
:101AA000FFF75AFE06B070BD081E0008041E0008AD
:101AB00034000020011E0008061E0008021E000857
:101AC00070478A0721F0030101F1804101F5983147
:101AD000120F0F23D1F808C893402CEA0303C1F872
:101AE0000838D1F8083890401843C1F80808704702
:101AF00035488168491C8160416811F0020F03D0AC
:101B0000816811F03F0F07D0416811F0020F06BF46
:101B1000806810F07F0F704710B52C4C207800F0D3
:101B2000030001280BD0022805D0032804BF02209F
:101B3000FFF766FF06E00220FFF756FF02E00220F3
:101B4000FFF746FF207800F00C0004280BD008288F
:101B500005D00C2804BF0120FFF752FF06E001204A
:101B6000FFF742FF02E00120FFF732FF207800F08C
:101B7000300010280BD0202805D0302804BF0020CA
:101B8000FFF73EFF06E00020FFF72EFF02E00020F7
:101B9000FFF71EFF207800F0C00040280ED08028FC
:101BA00007D0C02818BF10BD0320BDE81040FFF7C4
:101BB00027BFBDE810400320FFF716BFBDE8104067
:101BC0000320FFF705BF0000000000200C000020EC
:101BD0003F4882B0016841F4700101603D480168EE
:101BE00041F0010101603C4900230B60026822F4CE
:101BF000102222F08072026000F1040C374ACCF807
:101C00000020026822F4802202600A1D1360019302
:101C10000093026842F480320260026802F40032EB
:101C20000092019A521C0192009A1AB9019AB2F5D7
:101C3000A06FF2D1026812F4003F08BF009331D0C8
:101C400001220092264A136843F080531360254A0C
:101C5000136843F4804313600A680A600A6842F418
:101C600000420A600A6842F4A0520A601E4ACCF898
:101C70000020026842F080720260026812F0007F69
:101C8000FBD01A4B40F205621A600A6822F0030288
:101C90000A600A6842F002020A600A6802F00C0256
:101CA000082AFAD10A6822F400020A60114A10498F
:101CB0001160016841F080610160016811F0006FFE
:101CC000FBD00D494FF00060086002B07047000083
:101CD00088ED00E00038024008380240103000244F
:101CE000403802400070004008544007003C024069
:101CF000804000308438024008ED00E0FEE700003C
:101D00002DE9F04100241C4D2246002912DD47F642
:101D1000BC7C1A4ECCF1000730F9023B6345B4BFDE
:101D20009F420124B5F802809044521C26F81830D6
:101D30008A42F1DB68880844B0F5C06FAEBF00206E
:101D4000688808446880A86868B1401EA86004BF1D
:101D50000220FFF73DFE002C08BFBDE8F0813220D5
:101D6000A860BDE8F081002C08BFBDE8F08102202A
:101D7000FFF73AFEF3E7000010000020AC1300204C
:101D800002E008C8121F08C1002AFAD17047704744
:101D9000002001E001C1121F002AFBD170470000A2
:101DA0000120FFF7EFFD0020FFF7ECFD0220FFF719
:101DB000E9FD0320FFF7E6FD0F48FFF71FFD0E4882
:101DC0004FF47A714068B0FBF1F0B0F1807F0DD232
:101DD00020F07F40411E4FF0E0204161074AF02192
:101DE00082F8141D00218161072101610121002079
:101DF000FFF714FEFEE700009C0300200FE000E068
:101E00000000060001000100010000000010002099
:101E100000400080080000000800000008000000EA
:101E200008000000441E0008000000209C03000081
:101E300098120008902000089C0300202421000034
:101E4000901D00080110F2643210021101130240CB
:101E5000DA0C043173FFFF5BC01234122017B86034
:101E600002400C3C3920622F322822243340203299
:101E70002282212D01020304045506070809284483
:101E80001C15310F2B24400A261F3B19352E4A06FC
:101E9000221B3715312A46102C25411F3B34500395
:101EA0001F1834122E27430D29223E1C38314D09AC
:101EB000251E3A18342D49132F2844223E3753014A
:101EC0001D16322C281D0B27203C1A362F4B0723BA
:101ED0001C3816322B47112D2642203C3551042048
:101EE00019352C68090E2A233F1D39324E6808091E
:101EF0007F14302945233F38548068101215271766
:101F0000292C3E182A2D3F2F4144560828093042DB
:101F1000455747595C6E1C2D2E404355146D46584D
:101F20005B6D08291C68155E70738515272A3C2C8B
:101F30003E41532D3F42544456596B08280945579A
:101F40005A6C5C6E71831C2D4355586A146D5B6D21
:101F5000708208291C68157385889A1224273929EC
:101F60003B3E502A3C3F5141535668082809425491
:101F70005769596B6E801C2D40525567146D586A15
:101F80006D7F08291C68157082859727393C4E3E65
:101F90005053653F51546656686B7D082809576950
:101FA0006C7E6E8083951C2D55676A7C146D6D7FE9
:101FB000829408291C2585979AAC180E0101030309
:101FC00004040606070709090A01181E0B0B0D0D6C
:101FD0000E0E10101111131314140F0F10101212F3
:101FE00013131515161618181901680F1A1A1C1C48
:101FF0001D1D1F1F2020222223231818081B1B1C15
:102000001C1E1E1F014918181825252626282829B8
:102010002924242525272728282A2A2B2B2D2D2E35
:1020200001A80F2F2F31313232343435353737385C
:10203000384C2934A8152626272729292A2A2C2C6A
:102040002D2D2F2F30302B2B2C2C34A8113535363D
:1020500036383839393B3B3C3C3E3E3F3F4C1C3ADE
:102060003A3B014918181841414242444445454011
:10207000404141434344444646474749494A010099
:102080000F004B4B4D4D4E4E5050515153535454E5
:040000050800018965
:00000001FF
